{
  "address": "0x7e01CA580b878426A1B229686848722135EF0E77",
  "abi": [
    {
      "inputs": [
        {
          "internalType": "address",
          "name": "_receiveUln302",
          "type": "address"
        },
        {
          "internalType": "address",
          "name": "_receiveUln302View",
          "type": "address"
        },
        {
          "internalType": "address",
          "name": "_endpoint",
          "type": "address"
        },
        {
          "internalType": "address",
          "name": "_initialOwner",
          "type": "address"
        }
      ],
      "stateMutability": "nonpayable",
      "type": "constructor"
    },
    {
      "inputs": [],
      "name": "InvalidInitialization",
      "type": "error"
    },
    {
      "inputs": [],
      "name": "LzExecutor_Executed",
      "type": "error"
    },
    {
      "inputs": [],
      "name": "LzExecutor_ReceiveLibViewNotSet",
      "type": "error"
    },
    {
      "inputs": [],
      "name": "LzExecutor_Verifying",
      "type": "error"
    },
    {
      "inputs": [],
      "name": "NotInitializing",
      "type": "error"
    },
    {
      "inputs": [
        {
          "internalType": "address",
          "name": "owner",
          "type": "address"
        }
      ],
      "name": "OwnableInvalidOwner",
      "type": "error"
    },
    {
      "inputs": [
        {
          "internalType": "address",
          "name": "account",
          "type": "address"
        }
      ],
      "name": "OwnableUnauthorizedAccount",
      "type": "error"
    },
    {
      "inputs": [
        {
          "internalType": "address",
          "name": "_to",
          "type": "address"
        },
        {
          "internalType": "uint256",
          "name": "_value",
          "type": "uint256"
        }
      ],
      "name": "Transfer_NativeFailed",
      "type": "error"
    },
    {
      "inputs": [],
      "name": "Transfer_ToAddressIsZero",
      "type": "error"
    },
    {
      "anonymous": false,
      "inputs": [
        {
          "indexed": false,
          "internalType": "uint64",
          "name": "version",
          "type": "uint64"
        }
      ],
      "name": "Initialized",
      "type": "event"
    },
    {
      "anonymous": false,
      "inputs": [
        {
          "indexed": false,
          "internalType": "address",
          "name": "_to",
          "type": "address"
        },
        {
          "indexed": false,
          "internalType": "uint256",
          "name": "_amount",
          "type": "uint256"
        }
      ],
      "name": "NativeWithdrawn",
      "type": "event"
    },
    {
      "anonymous": false,
      "inputs": [
        {
          "indexed": true,
          "internalType": "address",
          "name": "previousOwner",
          "type": "address"
        },
        {
          "indexed": true,
          "internalType": "address",
          "name": "newOwner",
          "type": "address"
        }
      ],
      "name": "OwnershipTransferred",
      "type": "event"
    },
    {
      "anonymous": false,
      "inputs": [
        {
          "indexed": false,
          "internalType": "address",
          "name": "_receiveLib",
          "type": "address"
        },
        {
          "indexed": false,
          "internalType": "address",
          "name": "_receiveLibView",
          "type": "address"
        }
      ],
      "name": "ReceiveLibViewSet",
      "type": "event"
    },
    {
      "inputs": [],
      "name": "EMPTY_PAYLOAD_HASH",
      "outputs": [
        {
          "internalType": "bytes32",
          "name": "",
          "type": "bytes32"
        }
      ],
      "stateMutability": "view",
      "type": "function"
    },
    {
      "inputs": [],
      "name": "NIL_PAYLOAD_HASH",
      "outputs": [
        {
          "internalType": "bytes32",
          "name": "",
          "type": "bytes32"
        }
      ],
      "stateMutability": "view",
      "type": "function"
    },
    {
      "inputs": [
        {
          "internalType": "address",
          "name": "_receiveLib",
          "type": "address"
        },
        {
          "components": [
            {
              "components": [
                {
                  "internalType": "uint32",
                  "name": "srcEid",
                  "type": "uint32"
                },
                {
                  "internalType": "bytes32",
                  "name": "sender",
                  "type": "bytes32"
                },
                {
                  "internalType": "uint64",
                  "name": "nonce",
                  "type": "uint64"
                }
              ],
              "internalType": "struct Origin",
              "name": "origin",
              "type": "tuple"
            },
            {
              "internalType": "address",
              "name": "receiver",
              "type": "address"
            },
            {
              "internalType": "bytes32",
              "name": "guid",
              "type": "bytes32"
            },
            {
              "internalType": "bytes",
              "name": "message",
              "type": "bytes"
            },
            {
              "internalType": "bytes",
              "name": "extraData",
              "type": "bytes"
            },
            {
              "internalType": "uint256",
              "name": "gas",
              "type": "uint256"
            },
            {
              "internalType": "uint256",
              "name": "value",
              "type": "uint256"
            }
          ],
          "internalType": "struct LzReceiveParam",
          "name": "_lzReceiveParam",
          "type": "tuple"
        },
        {
          "components": [
            {
              "internalType": "address",
              "name": "_receiver",
              "type": "address"
            },
            {
              "internalType": "uint256",
              "name": "_amount",
              "type": "uint256"
            }
          ],
          "internalType": "struct NativeDropParam[]",
          "name": "_nativeDropParams",
          "type": "tuple[]"
        }
      ],
      "name": "commitAndExecute",
      "outputs": [],
      "stateMutability": "payable",
      "type": "function"
    },
    {
      "inputs": [],
      "name": "endpoint",
      "outputs": [
        {
          "internalType": "contract ILayerZeroEndpointV2",
          "name": "",
          "type": "address"
        }
      ],
      "stateMutability": "view",
      "type": "function"
    },
    {
      "inputs": [
        {
          "components": [
            {
              "internalType": "uint32",
              "name": "srcEid",
              "type": "uint32"
            },
            {
              "internalType": "bytes32",
              "name": "sender",
              "type": "bytes32"
            },
            {
              "internalType": "uint64",
              "name": "nonce",
              "type": "uint64"
            }
          ],
          "internalType": "struct Origin",
          "name": "_origin",
          "type": "tuple"
        },
        {
          "internalType": "address",
          "name": "_receiver",
          "type": "address"
        }
      ],
      "name": "executable",
      "outputs": [
        {
          "internalType": "enum ExecutionState",
          "name": "",
          "type": "uint8"
        }
      ],
      "stateMutability": "view",
      "type": "function"
    },
    {
      "inputs": [
        {
          "components": [
            {
              "internalType": "uint32",
              "name": "srcEid",
              "type": "uint32"
            },
            {
              "internalType": "bytes32",
              "name": "sender",
              "type": "bytes32"
            },
            {
              "internalType": "uint64",
              "name": "nonce",
              "type": "uint64"
            }
          ],
          "internalType": "struct Origin",
          "name": "_origin",
          "type": "tuple"
        },
        {
          "internalType": "address",
          "name": "_receiver",
          "type": "address"
        }
      ],
      "name": "initializable",
      "outputs": [
        {
          "internalType": "bool",
          "name": "",
          "type": "bool"
        }
      ],
      "stateMutability": "view",
      "type": "function"
    },
    {
      "inputs": [
        {
          "internalType": "address",
          "name": "_endpoint",
          "type": "address"
        }
      ],
      "name": "initialize",
      "outputs": [],
      "stateMutability": "nonpayable",
      "type": "function"
    },
    {
      "inputs": [],
      "name": "localEid",
      "outputs": [
        {
          "internalType": "uint32",
          "name": "",
          "type": "uint32"
        }
      ],
      "stateMutability": "view",
      "type": "function"
    },
    {
      "inputs": [],
      "name": "owner",
      "outputs": [
        {
          "internalType": "address",
          "name": "",
          "type": "address"
        }
      ],
      "stateMutability": "view",
      "type": "function"
    },
    {
      "inputs": [
        {
          "internalType": "address",
          "name": "receiveLib",
          "type": "address"
        }
      ],
      "name": "receiveLibToView",
      "outputs": [
        {
          "internalType": "address",
          "name": "receiveLibView",
          "type": "address"
        }
      ],
      "stateMutability": "view",
      "type": "function"
    },
    {
      "inputs": [],
      "name": "receiveUln302",
      "outputs": [
        {
          "internalType": "address",
          "name": "",
          "type": "address"
        }
      ],
      "stateMutability": "view",
      "type": "function"
    },
    {
      "inputs": [],
      "name": "renounceOwnership",
      "outputs": [],
      "stateMutability": "nonpayable",
      "type": "function"
    },
    {
      "inputs": [
        {
          "internalType": "address",
          "name": "_receiveLib",
          "type": "address"
        },
        {
          "internalType": "address",
          "name": "_receiveLibView",
          "type": "address"
        }
      ],
      "name": "setReceiveLibView",
      "outputs": [],
      "stateMutability": "nonpayable",
      "type": "function"
    },
    {
      "inputs": [
        {
          "internalType": "address",
          "name": "newOwner",
          "type": "address"
        }
      ],
      "name": "transferOwnership",
      "outputs": [],
      "stateMutability": "nonpayable",
      "type": "function"
    },
    {
      "inputs": [
        {
          "components": [
            {
              "internalType": "uint32",
              "name": "srcEid",
              "type": "uint32"
            },
            {
              "internalType": "bytes32",
              "name": "sender",
              "type": "bytes32"
            },
            {
              "internalType": "uint64",
              "name": "nonce",
              "type": "uint64"
            }
          ],
          "internalType": "struct Origin",
          "name": "_origin",
          "type": "tuple"
        },
        {
          "internalType": "address",
          "name": "_receiver",
          "type": "address"
        },
        {
          "internalType": "address",
          "name": "_receiveLib",
          "type": "address"
        },
        {
          "internalType": "bytes32",
          "name": "_payloadHash",
          "type": "bytes32"
        }
      ],
      "name": "verifiable",
      "outputs": [
        {
          "internalType": "bool",
          "name": "",
          "type": "bool"
        }
      ],
      "stateMutability": "view",
      "type": "function"
    },
    {
      "inputs": [
        {
          "internalType": "address",
          "name": "_to",
          "type": "address"
        },
        {
          "internalType": "uint256",
          "name": "_amount",
          "type": "uint256"
        }
      ],
      "name": "withdrawNative",
      "outputs": [],
      "stateMutability": "nonpayable",
      "type": "function"
    }
  ],
  "transactionHash": "0x2539817146fda6b34a8dda81fa28b7b5c9829f9459d861f28a0fe802013b6bd9",
  "args": [
    "0x75Db67CDab2824970131D5aa9CECfC9F69c69636",
    "0xDbB82b04f149C91673864541066B3D776f322A1b",
    "0x6EDCE65403992e310A62460808c4b910D972f10f",
    "0x02Cc42A465170d3e4d98302EfBb0D244a47A8FA1"
  ],
  "numDeployments": 1,
  "solcInputHash": "2a25d81b29c9df0cfb510674deac08b4",
  "bytecode": "0x60806040523480156200001157600080fd5b5060405162001751380380620017518339810160408190526200003491620001c7565b806001600160a01b0381166200006457604051631e4fbdf760e01b81526000600482015260240160405180910390fd5b6200006f816200015a565b50600180546001600160a01b038085166001600160a01b0319928316811790935560338054918816919092161790556040805163416ecebf60e01b8152905163416ecebf916004808201926020929091908290030181865afa158015620000da573d6000803e3d6000fd5b505050506040513d601f19601f8201168201806040525081019062000100919062000224565b6033805463ffffffff60a01b1916600160a01b63ffffffff939093169290920291909117905550506001600160a01b03918216600090815260346020526040902080546001600160a01b0319169190921617905562000253565b600080546001600160a01b038381166001600160a01b0319831681178455604051919092169283917f8be0079c531659141344cd1fd0a4f28419497f9722a3daafe3b4186f6b6457e09190a35050565b80516001600160a01b0381168114620001c257600080fd5b919050565b60008060008060808587031215620001de57600080fd5b620001e985620001aa565b9350620001f960208601620001aa565b92506200020960408601620001aa565b91506200021960608601620001aa565b905092959194509250565b6000602082840312156200023757600080fd5b815163ffffffff811681146200024c57600080fd5b9392505050565b6114ee80620002636000396000f3fe6080604052600436106100f35760003560e01c8063861e1ca51161008a578063d73d37c611610059578063d73d37c6146102cf578063dcfdeb60146102ef578063e1e3a7df14610302578063f2fde38b1461032257600080fd5b8063861e1ca51461024c5780638da5cb5b1461027c578063c4d66de81461029a578063cb5026b9146102ba57600080fd5b80636f178835116100c65780636f178835146101a8578063715018a6146101de57806372607537146101f3578063843c7b0e1461022c57600080fd5b806307b18bde146100f85780632baf0be71461011a5780634b4b2efb146101435780635e280f1114610170575b600080fd5b34801561010457600080fd5b50610118610113366004610faa565b610342565b005b34801561012657600080fd5b5061013060001981565b6040519081526020015b60405180910390f35b34801561014f57600080fd5b5061016361015e366004611075565b61039b565b60405161013a91906110bf565b34801561017c57600080fd5b50600154610190906001600160a01b031681565b6040516001600160a01b03909116815260200161013a565b3480156101b457600080fd5b506101906101c33660046110e7565b6034602052600090815260409020546001600160a01b031681565b3480156101ea57600080fd5b506101186105e3565b3480156101ff57600080fd5b5060335461021790600160a01b900463ffffffff1681565b60405163ffffffff909116815260200161013a565b34801561023857600080fd5b50603354610190906001600160a01b031681565b34801561025857600080fd5b5061026c610267366004611075565b6105f7565b604051901515815260200161013a565b34801561028857600080fd5b506000546001600160a01b0316610190565b3480156102a657600080fd5b506101186102b53660046110e7565b610676565b3480156102c657600080fd5b50610130600081565b3480156102db57600080fd5b506101186102ea366004611109565b6107ef565b6101186102fd366004611133565b61085b565b34801561030e57600080fd5b5061026c61031d3660046111e0565b610c4c565b34801561032e57600080fd5b5061011861033d3660046110e7565b610d79565b61034a610dbc565b6103548282610de9565b604080516001600160a01b0384168152602081018390527fc303ca808382409472acbbf899c316cf439f409f6584aae22df86dfa3c9ed50491015b60405180910390a15050565b60015482516020840151604080860151905163c9fc7bcd60e01b81526001600160a01b03868116600483015263ffffffff909416602482015260448101929092526001600160401b031660648201526000928392169063c9fc7bcd90608401602060405180830381865afa158015610417573d6000803e3d6000fd5b505050506040513d601f19601f8201168201806040525081019061043b919061122c565b9050801580156104e95750600154845160208601516040516305b17bb760e41b81526001600160a01b03878116600483015263ffffffff90931660248201526044810191909152911690635b17bb7090606401602060405180830381865afa1580156104ab573d6000803e3d6000fd5b505050506040513d601f19601f820116820180604052508101906104cf9190611245565b6001600160401b031684604001516001600160401b031611155b156104f85760039150506105dd565b60001981148015906105a857506001548451602086015160405163283750ff60e21b81526001600160a01b03878116600483015263ffffffff9093166024820152604481019190915291169063a0dd43fc90606401602060405180830381865afa15801561056a573d6000803e3d6000fd5b505050506040513d601f19601f8201168201806040525081019061058e9190611245565b6001600160401b031684604001516001600160401b031611155b156105b75760029150506105dd565b80158015906105c857506000198114155b156105d75760019150506105dd565b60009150505b92915050565b6105eb610dbc565b6105f56000610e9b565b565b60015460405163861e1ca560e01b81526000916001600160a01b03169063861e1ca59061062a9086908690600401611262565b602060405180830381865afa925050508015610663575060408051601f3d908101601f19168201909252610660918101906112a0565b60015b61066f575060006105dd565b90506105dd565b60006106a07fb53127684a568b3173ae13b9f8a6016e243e63b6e8ee1178d6a717850b5d61035490565b90506001600160a01b0381166106df576001600160a01b037fb53127684a568b3173ae13b9f8a6016e243e63b6e8ee1178d6a717850b5d6103556106f4565b336001600160a01b038216146106f457600080fd5b60006106fe610eeb565b805490915060ff600160401b82041615906001600160401b03166000811580156107255750825b90506000826001600160401b031660011480156107415750303b155b90508115801561074f575080155b1561076d5760405163f92ee8a960e01b815260040160405180910390fd5b845467ffffffffffffffff19166001178555831561079757845460ff60401b1916600160401b1785555b6107a087610f14565b83156107e657845460ff60401b19168555604051600181527fc7f505b2f371ae2175ee4913f4499e1f2633a7b5936321eed1cdaeb6115181d29060200160405180910390a15b50505050505050565b6107f7610dbc565b6001600160a01b0382811660008181526034602090815260409182902080546001600160a01b031916948616948517905581519283528201929092527f142c46535a86ac791981f3f16bdfd58291f3f03fc3fd111646f3f0e4eb326b63910161038f565b600061087f61086f368690038601866112c2565b61015e60808701606088016110e7565b90506003816003811115610895576108956110a9565b036108b357604051631fe9c3ef60e11b815260040160405180910390fd5b60028160038111156108c7576108c76110a9565b14610b57576033546000906001600160a01b0316156108f1576033546001600160a01b03166108f3565b855b90506000600161090960608801604089016112de565b61091660208901896112fb565b60335460208a013590600160a01b900463ffffffff1661093c60808c0160608d016110e7565b60405160f89690961b6001600160f81b031916602087015260c09490941b6001600160c01b031916602186015260e092831b6001600160e01b03199081166029870152602d86019290925290911b16604d8301526001600160a01b0316605182015260710160408051601f198184030181529190529050600060808701356109c760a0890189611316565b6040516020016109d993929190611363565b60408051601f1981840301815291815281516020928301206001600160a01b038087166000908152603490945291909220549192501680610a2d576040516303776d1560e31b815260040160405180910390fd5b6040516327d12cd960e01b81526000906001600160a01b038316906327d12cd990610a5e908790879060040161137d565b602060405180830381865afa158015610a7b573d6000803e3d6000fd5b505050506040513d601f19601f82011682018060405250810190610a9f91906113d2565b90506001816003811115610ab557610ab56110a9565b03610b1f57604051630894edf160e01b81526001600160a01b03861690630894edf190610ae8908790879060040161137d565b600060405180830381600087803b158015610b0257600080fd5b505af1158015610b16573d6000803e3d6000fd5b50505050610b51565b6000816003811115610b3357610b336110a9565b03610b51576040516306f5423360e11b815260040160405180910390fd5b50505050505b60005b82811015610ba35736848483818110610b7557610b756113f3565b604002919091019150610b9a9050610b9060208301836110e7565b8260200135610de9565b50600101610b5a565b506001546001600160a01b0316630c0c389e60e086013561010087013587610bd160808201606083016110e7565b60808a0135610be360a08c018c611316565b610bf060c08e018e611316565b6040518a63ffffffff1660e01b8152600401610c129796959493929190611432565b6000604051808303818589803b158015610c2b57600080fd5b5088f1158015610c3f573d6000803e3d6000fd5b5050505050505050505050565b6001548451604051639d7f977560e01b81526001600160a01b03868116600483015263ffffffff909216602482015284821660448201526000929190911690639d7f977590606401602060405180830381865afa158015610cb1573d6000803e3d6000fd5b505050506040513d601f19601f82011682018060405250810190610cd591906112a0565b610ce157506000610d71565b60015460405163c9a54a9960e01b81526001600160a01b039091169063c9a54a9990610d139088908890600401611262565b602060405180830381865afa158015610d30573d6000803e3d6000fd5b505050506040513d601f19601f82011682018060405250810190610d5491906112a0565b610d6057506000610d71565b81610d6d57506000610d71565b5060015b949350505050565b610d81610dbc565b6001600160a01b038116610db057604051631e4fbdf760e01b8152600060048201526024015b60405180910390fd5b610db981610e9b565b50565b6000546001600160a01b031633146105f55760405163118cdaa760e01b8152336004820152602401610da7565b6001600160a01b038216610e10576040516306b7a93160e41b815260040160405180910390fd5b6000826001600160a01b03168260405160006040518083038185875af1925050503d8060008114610e5d576040519150601f19603f3d011682016040523d82523d6000602084013e610e62565b606091505b5050905080610e9657604051631196f20d60e21b81526001600160a01b038416600482015260248101839052604401610da7565b505050565b600080546001600160a01b038381166001600160a01b0319831681178455604051919092169283917f8be0079c531659141344cd1fd0a4f28419497f9722a3daafe3b4186f6b6457e09190a35050565b6000807ff0c57e16840df040f15088dc2f81fe391c3923bec73e23a9662efc9c229c6a006105dd565b610f1c610f25565b610db981610f4a565b610f2d610f74565b6105f557604051631afcd79f60e31b815260040160405180910390fd5b610f52610f25565b600180546001600160a01b0319166001600160a01b0392909216919091179055565b6000610f7e610eeb565b54600160401b900460ff16919050565b80356001600160a01b0381168114610fa557600080fd5b919050565b60008060408385031215610fbd57600080fd5b610fc683610f8e565b946020939093013593505050565b803563ffffffff81168114610fa557600080fd5b6001600160401b0381168114610db957600080fd5b60006060828403121561100f57600080fd5b604051606081018181106001600160401b038211171561103f57634e487b7160e01b600052604160045260246000fd5b60405290508061104e83610fd4565b815260208301356020820152604083013561106881610fe8565b6040919091015292915050565b6000806080838503121561108857600080fd5b6110928484610ffd565b91506110a060608401610f8e565b90509250929050565b634e487b7160e01b600052602160045260246000fd5b60208101600483106110e157634e487b7160e01b600052602160045260246000fd5b91905290565b6000602082840312156110f957600080fd5b61110282610f8e565b9392505050565b6000806040838503121561111c57600080fd5b61112583610f8e565b91506110a060208401610f8e565b6000806000806060858703121561114957600080fd5b61115285610f8e565b935060208501356001600160401b038082111561116e57600080fd5b90860190610120828903121561118357600080fd5b9093506040860135908082111561119957600080fd5b818701915087601f8301126111ad57600080fd5b8135818111156111bc57600080fd5b8860208260061b85010111156111d157600080fd5b95989497505060200194505050565b60008060008060c085870312156111f657600080fd5b6112008686610ffd565b935061120e60608601610f8e565b925061121c60808601610f8e565b9396929550929360a00135925050565b60006020828403121561123e57600080fd5b5051919050565b60006020828403121561125757600080fd5b815161110281610fe8565b825163ffffffff168152602080840151908201526040928301516001600160401b0316928101929092526001600160a01b0316606082015260800190565b6000602082840312156112b257600080fd5b8151801515811461110257600080fd5b6000606082840312156112d457600080fd5b6111028383610ffd565b6000602082840312156112f057600080fd5b813561110281610fe8565b60006020828403121561130d57600080fd5b61110282610fd4565b6000808335601e1984360301811261132d57600080fd5b8301803591506001600160401b0382111561134757600080fd5b60200191503681900382131561135c57600080fd5b9250929050565b838152818360208301376000910160200190815292915050565b604081526000835180604084015260005b818110156113ab576020818701810151606086840101520161138e565b506000606082850101526060601f19601f8301168401019150508260208301529392505050565b6000602082840312156113e457600080fd5b81516004811061110257600080fd5b634e487b7160e01b600052603260045260246000fd5b81835281816020850137506000828201602090810191909152601f909101601f19169091010190565b63ffffffff61144089610fd4565b168152602088013560208201526000604089013561145d81610fe8565b6001600160401b031660408301526001600160a01b03881660608301526080820187905260e060a083018190526114979083018688611409565b82810360c08401526114aa818587611409565b9a995050505050505050505056fea2646970667358221220336cf03e51bdb055cbaf96e27a56cd785e0454d14d9faba8ad08a2b87696a12464736f6c63430008160033",
  "devdoc": {
    "errors": {
      "InvalidInitialization()": [
        {
          "details": "The contract is already initialized."
        }
      ],
      "NotInitializing()": [
        {
          "details": "The contract is not initializing."
        }
      ],
      "OwnableInvalidOwner(address)": [
        {
          "details": "The owner is not a valid owner account. (eg. `address(0)`)"
        }
      ],
      "OwnableUnauthorizedAccount(address)": [
        {
          "details": "The caller account is not authorized to perform an operation."
        }
      ]
    },
    "events": {
      "Initialized(uint64)": {
        "details": "Triggered when the contract has been initialized or reinitialized."
      }
    },
    "kind": "dev",
    "methods": {
      "executable((uint32,bytes32,uint64),address)": {
        "details": "check if a message is executable.",
        "returns": {
          "_0": "ExecutionState of Executed, Executable, or NotExecutable"
        }
      },
      "owner()": {
        "details": "Returns the address of the current owner."
      },
      "renounceOwnership()": {
        "details": "Leaves the contract without owner. It will not be possible to call `onlyOwner` functions. Can only be called by the current owner. NOTE: Renouncing ownership will leave the contract without an owner, thereby disabling any functionality that is only available to the owner."
      },
      "transferOwnership(address)": {
        "details": "Transfers ownership of the contract to a new account (`newOwner`). Can only be called by the current owner."
      },
      "verifiable((uint32,bytes32,uint64),address,address,bytes32)": {
        "details": "check if a message is verifiable."
      }
    },
    "version": 1
  },
  "userdoc": {
    "kind": "user",
    "methods": {
      "commitAndExecute(address,((uint32,bytes32,uint64),address,bytes32,bytes,bytes,uint256,uint256),(address,uint256)[])": {
        "notice": "process for commit and execute 1. check if executable, revert if executed, execute if executable 2. check if verifiable, revert if verifying, commit if verifiable 3. native drop 4. try execute, will revert if not executable"
      }
    },
    "version": 1
  },
  "storageLayout": {
    "storage": [
      {
        "astId": 5982,
        "contract": "contracts/mocks/DestinationExecutorMock.sol:DestinationExecutorMock",
        "label": "_owner",
        "offset": 0,
        "slot": "0",
        "type": "t_address"
      },
      {
        "astId": 1178,
        "contract": "contracts/mocks/DestinationExecutorMock.sol:DestinationExecutorMock",
        "label": "endpoint",
        "offset": 0,
        "slot": "1",
        "type": "t_contract(ILayerZeroEndpointV2)1566"
      },
      {
        "astId": 1362,
        "contract": "contracts/mocks/DestinationExecutorMock.sol:DestinationExecutorMock",
        "label": "__gap",
        "offset": 0,
        "slot": "2",
        "type": "t_array(t_uint256)49_storage"
      },
      {
        "astId": 7780,
        "contract": "contracts/mocks/DestinationExecutorMock.sol:DestinationExecutorMock",
        "label": "receiveUln302",
        "offset": 0,
        "slot": "51",
        "type": "t_address"
      },
      {
        "astId": 7782,
        "contract": "contracts/mocks/DestinationExecutorMock.sol:DestinationExecutorMock",
        "label": "localEid",
        "offset": 20,
        "slot": "51",
        "type": "t_uint32"
      },
      {
        "astId": 7786,
        "contract": "contracts/mocks/DestinationExecutorMock.sol:DestinationExecutorMock",
        "label": "receiveLibToView",
        "offset": 0,
        "slot": "52",
        "type": "t_mapping(t_address,t_address)"
      }
    ],
    "types": {
      "t_address": {
        "encoding": "inplace",
        "label": "address",
        "numberOfBytes": "20"
      },
      "t_array(t_uint256)49_storage": {
        "base": "t_uint256",
        "encoding": "inplace",
        "label": "uint256[49]",
        "numberOfBytes": "1568"
      },
      "t_contract(ILayerZeroEndpointV2)1566": {
        "encoding": "inplace",
        "label": "contract ILayerZeroEndpointV2",
        "numberOfBytes": "20"
      },
      "t_mapping(t_address,t_address)": {
        "encoding": "mapping",
        "key": "t_address",
        "label": "mapping(address => address)",
        "numberOfBytes": "32",
        "value": "t_address"
      },
      "t_uint256": {
        "encoding": "inplace",
        "label": "uint256",
        "numberOfBytes": "32"
      },
      "t_uint32": {
        "encoding": "inplace",
        "label": "uint32",
        "numberOfBytes": "4"
      }
    }
  }
}