{
  "address": "0x69fdE204449056CCe34d0c1E74eA7C795A81cE10",
  "abi": [
    {
      "inputs": [
        {
          "internalType": "address",
          "name": "_receiveUln",
          "type": "address"
        },
        {
          "internalType": "uint32",
          "name": "_localEid",
          "type": "uint32"
        }
      ],
      "stateMutability": "nonpayable",
      "type": "constructor"
    },
    {
      "inputs": [
        {
          "internalType": "uint32",
          "name": "expected",
          "type": "uint32"
        },
        {
          "internalType": "uint32",
          "name": "got",
          "type": "uint32"
        }
      ],
      "name": "InvalidLocalEid",
      "type": "error"
    },
    {
      "inputs": [
        {
          "internalType": "address",
          "name": "owner",
          "type": "address"
        }
      ],
      "name": "OwnableInvalidOwner",
      "type": "error"
    },
    {
      "inputs": [
        {
          "internalType": "address",
          "name": "account",
          "type": "address"
        }
      ],
      "name": "OwnableUnauthorizedAccount",
      "type": "error"
    },
    {
      "anonymous": false,
      "inputs": [
        {
          "indexed": true,
          "internalType": "address",
          "name": "previousOwner",
          "type": "address"
        },
        {
          "indexed": true,
          "internalType": "address",
          "name": "newOwner",
          "type": "address"
        }
      ],
      "name": "OwnershipTransferred",
      "type": "event"
    },
    {
      "anonymous": false,
      "inputs": [
        {
          "indexed": true,
          "internalType": "bytes32",
          "name": "guid",
          "type": "bytes32"
        }
      ],
      "name": "PayloadCommitted",
      "type": "event"
    },
    {
      "anonymous": false,
      "inputs": [
        {
          "indexed": true,
          "internalType": "bytes32",
          "name": "guid",
          "type": "bytes32"
        }
      ],
      "name": "PayloadVerified",
      "type": "event"
    },
    {
      "inputs": [],
      "name": "DVN_FEE",
      "outputs": [
        {
          "internalType": "uint256",
          "name": "",
          "type": "uint256"
        }
      ],
      "stateMutability": "view",
      "type": "function"
    },
    {
      "inputs": [],
      "name": "PACKET_VERSION",
      "outputs": [
        {
          "internalType": "uint8",
          "name": "",
          "type": "uint8"
        }
      ],
      "stateMutability": "view",
      "type": "function"
    },
    {
      "inputs": [
        {
          "components": [
            {
              "internalType": "uint32",
              "name": "dstEid",
              "type": "uint32"
            },
            {
              "internalType": "bytes",
              "name": "packetHeader",
              "type": "bytes"
            },
            {
              "internalType": "bytes32",
              "name": "payloadHash",
              "type": "bytes32"
            },
            {
              "internalType": "uint64",
              "name": "confirmations",
              "type": "uint64"
            },
            {
              "internalType": "address",
              "name": "sender",
              "type": "address"
            }
          ],
          "internalType": "struct ILayerZeroDVN.AssignJobParam",
          "name": "_param",
          "type": "tuple"
        },
        {
          "internalType": "bytes",
          "name": "_options",
          "type": "bytes"
        }
      ],
      "name": "assignJob",
      "outputs": [
        {
          "internalType": "uint256",
          "name": "fee",
          "type": "uint256"
        }
      ],
      "stateMutability": "payable",
      "type": "function"
    },
    {
      "inputs": [
        {
          "internalType": "bytes",
          "name": "_message",
          "type": "bytes"
        },
        {
          "internalType": "uint64",
          "name": "_nonce",
          "type": "uint64"
        },
        {
          "internalType": "uint32",
          "name": "_srcEid",
          "type": "uint32"
        },
        {
          "internalType": "bytes32",
          "name": "_remoteOApp",
          "type": "bytes32"
        },
        {
          "internalType": "uint32",
          "name": "_dstEid",
          "type": "uint32"
        },
        {
          "internalType": "address",
          "name": "_localOApp",
          "type": "address"
        }
      ],
      "name": "commit",
      "outputs": [],
      "stateMutability": "nonpayable",
      "type": "function"
    },
    {
      "inputs": [
        {
          "internalType": "uint32",
          "name": "_dstEid",
          "type": "uint32"
        },
        {
          "internalType": "uint64",
          "name": "_confirmations",
          "type": "uint64"
        },
        {
          "internalType": "address",
          "name": "_sender",
          "type": "address"
        },
        {
          "internalType": "bytes",
          "name": "_options",
          "type": "bytes"
        }
      ],
      "name": "getFee",
      "outputs": [
        {
          "internalType": "uint256",
          "name": "fee",
          "type": "uint256"
        }
      ],
      "stateMutability": "pure",
      "type": "function"
    },
    {
      "inputs": [],
      "name": "localEid",
      "outputs": [
        {
          "internalType": "uint32",
          "name": "",
          "type": "uint32"
        }
      ],
      "stateMutability": "view",
      "type": "function"
    },
    {
      "inputs": [],
      "name": "owner",
      "outputs": [
        {
          "internalType": "address",
          "name": "",
          "type": "address"
        }
      ],
      "stateMutability": "view",
      "type": "function"
    },
    {
      "inputs": [],
      "name": "receiveUln",
      "outputs": [
        {
          "internalType": "contract IReceiveUlnE2",
          "name": "",
          "type": "address"
        }
      ],
      "stateMutability": "view",
      "type": "function"
    },
    {
      "inputs": [],
      "name": "renounceOwnership",
      "outputs": [],
      "stateMutability": "nonpayable",
      "type": "function"
    },
    {
      "inputs": [
        {
          "internalType": "address",
          "name": "newOwner",
          "type": "address"
        }
      ],
      "name": "transferOwnership",
      "outputs": [],
      "stateMutability": "nonpayable",
      "type": "function"
    },
    {
      "inputs": [
        {
          "internalType": "bytes",
          "name": "_message",
          "type": "bytes"
        },
        {
          "internalType": "uint64",
          "name": "_nonce",
          "type": "uint64"
        },
        {
          "internalType": "uint32",
          "name": "_srcEid",
          "type": "uint32"
        },
        {
          "internalType": "bytes32",
          "name": "_remoteOApp",
          "type": "bytes32"
        },
        {
          "internalType": "uint32",
          "name": "_dstEid",
          "type": "uint32"
        },
        {
          "internalType": "address",
          "name": "_localOApp",
          "type": "address"
        }
      ],
      "name": "verify",
      "outputs": [],
      "stateMutability": "nonpayable",
      "type": "function"
    }
  ],
  "transactionHash": "0xd406e92b31fd50390290f0dc11254c0ae2ba14ba17710dd46294ad950374c801",
  "args": [
    "0x75Db67CDab2824970131D5aa9CECfC9F69c69636",
    40231
  ],
  "numDeployments": 1,
  "solcInputHash": "2a25d81b29c9df0cfb510674deac08b4",
  "bytecode": "0x60c060405234801561001057600080fd5b50604051610c08380380610c0883398101604081905261002f916100cb565b338061005557604051631e4fbdf760e01b81526000600482015260240160405180910390fd5b61005e8161007b565b506001600160a01b0390911660a05263ffffffff1660805261011a565b600080546001600160a01b038381166001600160a01b0319831681178455604051919092169283917f8be0079c531659141344cd1fd0a4f28419497f9722a3daafe3b4186f6b6457e09190a35050565b600080604083850312156100de57600080fd5b82516001600160a01b03811681146100f557600080fd5b602084015190925063ffffffff8116811461010f57600080fd5b809150509250929050565b60805160a051610a9f61016960003960008181610211015281816102f9015261049901526000818161016a0152818161025d015281816102a20152818161040201526104470152610a9f6000f3fe60806040526004361061009c5760003560e01c8063726075371161006457806372607537146101585780638da5cb5b146101a15780638e69034c146101d357806395d376d7146101e8578063e49ca471146101ff578063f2fde38b1461023357600080fd5b80631584d19b146100a157806330bb3aac146100c35780635fc45b7f146100fc5780636251b6371461011c578063715018a614610143575b600080fd5b3480156100ad57600080fd5b506100c16100bc366004610805565b610253565b005b3480156100cf57600080fd5b506100e96100de366004610895565b600095945050505050565b6040519081526020015b60405180910390f35b34801561010857600080fd5b506100c1610117366004610805565b6103f8565b34801561012857600080fd5b50610131600181565b60405160ff90911681526020016100f3565b34801561014f57600080fd5b506100c161059b565b34801561016457600080fd5b5061018c7f000000000000000000000000000000000000000000000000000000000000000081565b60405163ffffffff90911681526020016100f3565b3480156101ad57600080fd5b506000546001600160a01b03165b6040516001600160a01b0390911681526020016100f3565b3480156101df57600080fd5b506100e9600081565b6100e96101f636600461090b565b60009392505050565b34801561020b57600080fd5b506101bb7f000000000000000000000000000000000000000000000000000000000000000081565b34801561023f57600080fd5b506100c161024e36600461097c565b6105af565b61025b6105ed565b7f000000000000000000000000000000000000000000000000000000000000000063ffffffff168263ffffffff16146102dc5760405163fa4f8e1960e01b815263ffffffff7f000000000000000000000000000000000000000000000000000000000000000081166004830152831660248201526044015b60405180910390fd5b6001600160a01b03811660006102f5878787878661061a565b90507f00000000000000000000000000000000000000000000000000000000000000006001600160a01b0316630894edf16103338989898988610684565b610373848d8d8080601f0160208091040260200160405190810160405280939291908181526020018383808284376000920191909152506106f192505050565b6040518363ffffffff1660e01b81526004016103909291906109ee565b600060405180830381600087803b1580156103aa57600080fd5b505af11580156103be573d6000803e3d6000fd5b50506040518392507fa0cdf9e984005f961ea4efe52816d8db593b6dc4fd8eebdd455e73f6fe16f35e9150600090a2505050505050505050565b6104006105ed565b7f000000000000000000000000000000000000000000000000000000000000000063ffffffff168263ffffffff161461047c5760405163fa4f8e1960e01b815263ffffffff7f000000000000000000000000000000000000000000000000000000000000000081166004830152831660248201526044016102d3565b6001600160a01b0381166000610495878787878661061a565b90507f00000000000000000000000000000000000000000000000000000000000000006001600160a01b0316630223536e6104d38989898988610684565b610513848d8d8080601f0160208091040260200160405190810160405280939291908181526020018383808284376000920191909152506106f192505050565b60016040518463ffffffff1660e01b815260040161053393929190610a10565b600060405180830381600087803b15801561054d57600080fd5b505af1158015610561573d6000803e3d6000fd5b50506040518392507fa16c6366b8d58043f141d627e3a04a5b360d2b9d619bfe2a9fe8026ed6996c829150600090a2505050505050505050565b6105a36105ed565b6105ad6000610724565b565b6105b76105ed565b6001600160a01b0381166105e157604051631e4fbdf760e01b8152600060048201526024016102d3565b6105ea81610724565b50565b6000546001600160a01b031633146105ad5760405163118cdaa760e01b81523360048201526024016102d3565b6040516001600160c01b031960c087901b1660208201526001600160e01b031960e086811b82166028840152602c830186905284901b16604c8201526050810182905260009060700160405160208183030381529060405280519060200120905095945050505050565b604051600160f81b60208201526001600160c01b031960c087901b1660218201526001600160e01b031960e086811b82166029840152602d830186905284901b16604d82015260518101829052606090607101604051602081830303815290604052905095945050505050565b60008282604051602001610706929190610a43565b60405160208183030381529060405280519060200120905092915050565b600080546001600160a01b038381166001600160a01b0319831681178455604051919092169283917f8be0079c531659141344cd1fd0a4f28419497f9722a3daafe3b4186f6b6457e09190a35050565b60008083601f84011261078657600080fd5b50813567ffffffffffffffff81111561079e57600080fd5b6020830191508360208285010111156107b657600080fd5b9250929050565b803567ffffffffffffffff811681146107d557600080fd5b919050565b803563ffffffff811681146107d557600080fd5b80356001600160a01b03811681146107d557600080fd5b600080600080600080600060c0888a03121561082057600080fd5b873567ffffffffffffffff81111561083757600080fd5b6108438a828b01610774565b90985096506108569050602089016107bd565b9450610864604089016107da565b935060608801359250610879608089016107da565b915061088760a089016107ee565b905092959891949750929550565b6000806000806000608086880312156108ad57600080fd5b6108b6866107da565b94506108c4602087016107bd565b93506108d2604087016107ee565b9250606086013567ffffffffffffffff8111156108ee57600080fd5b6108fa88828901610774565b969995985093965092949392505050565b60008060006040848603121561092057600080fd5b833567ffffffffffffffff8082111561093857600080fd5b9085019060a0828803121561094c57600080fd5b9093506020850135908082111561096257600080fd5b5061096f86828701610774565b9497909650939450505050565b60006020828403121561098e57600080fd5b610997826107ee565b9392505050565b60005b838110156109b95781810151838201526020016109a1565b50506000910152565b600081518084526109da81602086016020860161099e565b601f01601f19169290920160200192915050565b604081526000610a0160408301856109c2565b90508260208301529392505050565b606081526000610a2360608301866109c2565b905083602083015267ffffffffffffffff83166040830152949350505050565b82815260008251610a5b81602085016020870161099e565b91909101602001939250505056fea2646970667358221220914c549dbcdca16a19e394f92b8a8992613caf7b3da809e0fc09c8589dd9ba4a64736f6c63430008160033",
  "devdoc": {
    "details": "We accept sender and receiver as bytes32 to handle arbitrary remote address formats.",
    "errors": {
      "OwnableInvalidOwner(address)": [
        {
          "details": "The owner is not a valid owner account. (eg. `address(0)`)"
        }
      ],
      "OwnableUnauthorizedAccount(address)": [
        {
          "details": "The caller account is not authorized to perform an operation."
        }
      ]
    },
    "kind": "dev",
    "methods": {
      "assignJob((uint32,bytes,bytes32,uint64,address),bytes)": {
        "details": "Returns a minimal fee and doesn't actually assign any job. You can override this function to return a different fee or to implement a fee mechanism."
      },
      "commit(bytes,uint64,uint32,bytes32,uint32,address)": {
        "details": "Accepts all address fields as bytes32 to support non-EVM senders (e.g. Solana pubkeys).",
        "params": {
          "_dstEid": "Destination chain EID (should match contract's localEid)",
          "_localOApp": "Receiver address on this chain (standard EVM address)",
          "_message": "Raw message (e.g., v1 OFT send: [PT_SEND || receiver || amountSD])",
          "_nonce": "LayerZero channel nonce",
          "_remoteOApp": "Sender address on source chain as bytes32 (no casting)",
          "_srcEid": "Source chain EID"
        }
      },
      "constructor": {
        "params": {
          "_localEid": "EID of this chain (receive/destination side)",
          "_receiveUln": "Address of this chain's deployed ReceiveUln302"
        }
      },
      "getFee(uint32,uint64,address,bytes)": {
        "details": "Returns a minimal fee for testing purposes. You can override this function to return a different fee or to implement a fee mechanism."
      },
      "owner()": {
        "details": "Returns the address of the current owner."
      },
      "renounceOwnership()": {
        "details": "Leaves the contract without owner. It will not be possible to call `onlyOwner` functions. Can only be called by the current owner. NOTE: Renouncing ownership will leave the contract without an owner, thereby disabling any functionality that is only available to the owner."
      },
      "transferOwnership(address)": {
        "details": "Transfers ownership of the contract to a new account (`newOwner`). Can only be called by the current owner."
      },
      "verify(bytes,uint64,uint32,bytes32,uint32,address)": {
        "details": "This is the first function that should be called in the message verification process.Accepts all address fields as bytes32 to support non-EVM senders (e.g. Solana pubkeys).",
        "params": {
          "_dstEid": "Destination chain EID (should match contract’s localEid)",
          "_localOApp": "Receiver address on this chain (standard EVM address)",
          "_message": "Raw message (e.g., v1 OFT send: [PT_SEND || receiver || amountSD])",
          "_nonce": "LayerZero channel nonce",
          "_remoteOApp": "Sender address on source chain as bytes32 (no casting)",
          "_srcEid": "Source chain EID"
        }
      }
    },
    "title": "SimpleDVNMock",
    "version": 1
  },
  "userdoc": {
    "kind": "user",
    "methods": {
      "assignJob((uint32,bytes,bytes32,uint64,address),bytes)": {
        "notice": "Assign job and return DVN fee (mock implementation)"
      },
      "commit(bytes,uint64,uint32,bytes32,uint32,address)": {
        "notice": "Manually commits a packet for execution."
      },
      "getFee(uint32,uint64,address,bytes)": {
        "notice": "Get the DVN fee (mock implementation)"
      },
      "verify(bytes,uint64,uint32,bytes32,uint32,address)": {
        "notice": "Manually verifies a packet sent to this chain."
      }
    },
    "notice": "A minimal DVN for manually verifying messages, for development use on testnets. Not for production. Deploy this on the destination chain.",
    "version": 1
  },
  "storageLayout": {
    "storage": [
      {
        "astId": 5982,
        "contract": "contracts/mocks/SimpleDVNMock.sol:SimpleDVNMock",
        "label": "_owner",
        "offset": 0,
        "slot": "0",
        "type": "t_address"
      }
    ],
    "types": {
      "t_address": {
        "encoding": "inplace",
        "label": "address",
        "numberOfBytes": "20"
      }
    }
  }
}