{
  "address": "0x7e01CA580b878426A1B229686848722135EF0E77",
  "abi": [
    {
      "inputs": [
        {
          "internalType": "address",
          "name": "_endpoint",
          "type": "address"
        },
        {
          "internalType": "address[]",
          "name": "_messageLibs",
          "type": "address[]"
        },
        {
          "internalType": "address",
          "name": "_receiveUln302",
          "type": "address"
        },
        {
          "internalType": "address",
          "name": "_receiveUln302View",
          "type": "address"
        }
      ],
      "stateMutability": "nonpayable",
      "type": "constructor"
    },
    {
      "inputs": [],
      "name": "AccessControlBadConfirmation",
      "type": "error"
    },
    {
      "inputs": [
        {
          "internalType": "address",
          "name": "account",
          "type": "address"
        },
        {
          "internalType": "bytes32",
          "name": "neededRole",
          "type": "bytes32"
        }
      ],
      "name": "AccessControlUnauthorizedAccount",
      "type": "error"
    },
    {
      "inputs": [],
      "name": "InvalidInitialization",
      "type": "error"
    },
    {
      "inputs": [],
      "name": "LzExecutor_Executed",
      "type": "error"
    },
    {
      "inputs": [],
      "name": "LzExecutor_ReceiveLibViewNotSet",
      "type": "error"
    },
    {
      "inputs": [],
      "name": "LzExecutor_Verifying",
      "type": "error"
    },
    {
      "inputs": [],
      "name": "NotInitializing",
      "type": "error"
    },
    {
      "inputs": [],
      "name": "ReentrancyGuardReentrantCall",
      "type": "error"
    },
    {
      "inputs": [
        {
          "internalType": "address",
          "name": "_to",
          "type": "address"
        },
        {
          "internalType": "uint256",
          "name": "_value",
          "type": "uint256"
        }
      ],
      "name": "Transfer_NativeFailed",
      "type": "error"
    },
    {
      "inputs": [],
      "name": "Transfer_ToAddressIsZero",
      "type": "error"
    },
    {
      "inputs": [],
      "name": "Worker_NotAllowed",
      "type": "error"
    },
    {
      "inputs": [],
      "name": "Worker_OnlyMessageLib",
      "type": "error"
    },
    {
      "inputs": [],
      "name": "Worker_RoleRenouncingDisabled",
      "type": "error"
    },
    {
      "anonymous": false,
      "inputs": [
        {
          "components": [
            {
              "internalType": "uint32",
              "name": "dstEid",
              "type": "uint32"
            },
            {
              "internalType": "uint64",
              "name": "lzReceiveBaseGas",
              "type": "uint64"
            },
            {
              "internalType": "uint64",
              "name": "lzComposeBaseGas",
              "type": "uint64"
            },
            {
              "internalType": "uint16",
              "name": "multiplierBps",
              "type": "uint16"
            },
            {
              "internalType": "uint128",
              "name": "floorMarginUSD",
              "type": "uint128"
            },
            {
              "internalType": "uint128",
              "name": "nativeCap",
              "type": "uint128"
            }
          ],
          "indexed": false,
          "internalType": "struct IExecutor.DstConfigParam[]",
          "name": "params",
          "type": "tuple[]"
        }
      ],
      "name": "DstConfigSet",
      "type": "event"
    },
    {
      "anonymous": false,
      "inputs": [
        {
          "indexed": false,
          "internalType": "uint64",
          "name": "version",
          "type": "uint64"
        }
      ],
      "name": "Initialized",
      "type": "event"
    },
    {
      "anonymous": false,
      "inputs": [
        {
          "components": [
            {
              "internalType": "uint32",
              "name": "srcEid",
              "type": "uint32"
            },
            {
              "internalType": "bytes32",
              "name": "sender",
              "type": "bytes32"
            },
            {
              "internalType": "uint64",
              "name": "nonce",
              "type": "uint64"
            }
          ],
          "indexed": false,
          "internalType": "struct Origin",
          "name": "origin",
          "type": "tuple"
        },
        {
          "indexed": false,
          "internalType": "uint32",
          "name": "dstEid",
          "type": "uint32"
        },
        {
          "indexed": false,
          "internalType": "address",
          "name": "oapp",
          "type": "address"
        },
        {
          "components": [
            {
              "internalType": "address",
              "name": "receiver",
              "type": "address"
            },
            {
              "internalType": "uint256",
              "name": "amount",
              "type": "uint256"
            }
          ],
          "indexed": false,
          "internalType": "struct IExecutor.NativeDropParams[]",
          "name": "params",
          "type": "tuple[]"
        },
        {
          "indexed": false,
          "internalType": "bool[]",
          "name": "success",
          "type": "bool[]"
        }
      ],
      "name": "NativeDropApplied",
      "type": "event"
    },
    {
      "anonymous": false,
      "inputs": [
        {
          "indexed": false,
          "internalType": "address",
          "name": "_receiveLib",
          "type": "address"
        },
        {
          "indexed": false,
          "internalType": "address",
          "name": "_receiveLibView",
          "type": "address"
        }
      ],
      "name": "ReceiveLibViewSet",
      "type": "event"
    },
    {
      "anonymous": false,
      "inputs": [
        {
          "indexed": true,
          "internalType": "bytes32",
          "name": "role",
          "type": "bytes32"
        },
        {
          "indexed": true,
          "internalType": "bytes32",
          "name": "previousAdminRole",
          "type": "bytes32"
        },
        {
          "indexed": true,
          "internalType": "bytes32",
          "name": "newAdminRole",
          "type": "bytes32"
        }
      ],
      "name": "RoleAdminChanged",
      "type": "event"
    },
    {
      "anonymous": false,
      "inputs": [
        {
          "indexed": true,
          "internalType": "bytes32",
          "name": "role",
          "type": "bytes32"
        },
        {
          "indexed": true,
          "internalType": "address",
          "name": "account",
          "type": "address"
        },
        {
          "indexed": true,
          "internalType": "address",
          "name": "sender",
          "type": "address"
        }
      ],
      "name": "RoleGranted",
      "type": "event"
    },
    {
      "anonymous": false,
      "inputs": [
        {
          "indexed": true,
          "internalType": "bytes32",
          "name": "role",
          "type": "bytes32"
        },
        {
          "indexed": true,
          "internalType": "address",
          "name": "account",
          "type": "address"
        },
        {
          "indexed": true,
          "internalType": "address",
          "name": "sender",
          "type": "address"
        }
      ],
      "name": "RoleRevoked",
      "type": "event"
    },
    {
      "anonymous": false,
      "inputs": [
        {
          "indexed": false,
          "internalType": "uint16",
          "name": "multiplierBps",
          "type": "uint16"
        }
      ],
      "name": "SetDefaultMultiplierBps",
      "type": "event"
    },
    {
      "anonymous": false,
      "inputs": [
        {
          "indexed": false,
          "internalType": "address",
          "name": "priceFeed",
          "type": "address"
        }
      ],
      "name": "SetPriceFeed",
      "type": "event"
    },
    {
      "anonymous": false,
      "inputs": [
        {
          "indexed": false,
          "internalType": "uint32",
          "name": "dstEid",
          "type": "uint32"
        },
        {
          "indexed": false,
          "internalType": "uint8[]",
          "name": "optionTypes",
          "type": "uint8[]"
        }
      ],
      "name": "SetSupportedOptionTypes",
      "type": "event"
    },
    {
      "anonymous": false,
      "inputs": [
        {
          "indexed": false,
          "internalType": "address",
          "name": "workerLib",
          "type": "address"
        }
      ],
      "name": "SetWorkerLib",
      "type": "event"
    },
    {
      "anonymous": false,
      "inputs": [
        {
          "indexed": false,
          "internalType": "address",
          "name": "lib",
          "type": "address"
        },
        {
          "indexed": false,
          "internalType": "address",
          "name": "to",
          "type": "address"
        },
        {
          "indexed": false,
          "internalType": "uint256",
          "name": "amount",
          "type": "uint256"
        }
      ],
      "name": "Withdraw",
      "type": "event"
    },
    {
      "inputs": [],
      "name": "DEFAULT_ADMIN_ROLE",
      "outputs": [
        {
          "internalType": "bytes32",
          "name": "",
          "type": "bytes32"
        }
      ],
      "stateMutability": "view",
      "type": "function"
    },
    {
      "inputs": [],
      "name": "EMPTY_PAYLOAD_HASH",
      "outputs": [
        {
          "internalType": "bytes32",
          "name": "",
          "type": "bytes32"
        }
      ],
      "stateMutability": "view",
      "type": "function"
    },
    {
      "inputs": [],
      "name": "NIL_PAYLOAD_HASH",
      "outputs": [
        {
          "internalType": "bytes32",
          "name": "",
          "type": "bytes32"
        }
      ],
      "stateMutability": "view",
      "type": "function"
    },
    {
      "inputs": [],
      "name": "allowlistSize",
      "outputs": [
        {
          "internalType": "uint64",
          "name": "",
          "type": "uint64"
        }
      ],
      "stateMutability": "view",
      "type": "function"
    },
    {
      "inputs": [
        {
          "internalType": "uint32",
          "name": "_dstEid",
          "type": "uint32"
        },
        {
          "internalType": "address",
          "name": "_sender",
          "type": "address"
        },
        {
          "internalType": "uint256",
          "name": "_calldataSize",
          "type": "uint256"
        },
        {
          "internalType": "bytes",
          "name": "_options",
          "type": "bytes"
        }
      ],
      "name": "assignJob",
      "outputs": [
        {
          "internalType": "uint256",
          "name": "fee",
          "type": "uint256"
        }
      ],
      "stateMutability": "nonpayable",
      "type": "function"
    },
    {
      "inputs": [
        {
          "internalType": "address",
          "name": "_sender",
          "type": "address"
        },
        {
          "internalType": "bytes",
          "name": "_options",
          "type": "bytes"
        }
      ],
      "name": "assignJob",
      "outputs": [
        {
          "internalType": "uint256",
          "name": "fee",
          "type": "uint256"
        }
      ],
      "stateMutability": "nonpayable",
      "type": "function"
    },
    {
      "inputs": [
        {
          "internalType": "address",
          "name": "_receiveLib",
          "type": "address"
        },
        {
          "components": [
            {
              "components": [
                {
                  "internalType": "uint32",
                  "name": "srcEid",
                  "type": "uint32"
                },
                {
                  "internalType": "bytes32",
                  "name": "sender",
                  "type": "bytes32"
                },
                {
                  "internalType": "uint64",
                  "name": "nonce",
                  "type": "uint64"
                }
              ],
              "internalType": "struct Origin",
              "name": "origin",
              "type": "tuple"
            },
            {
              "internalType": "address",
              "name": "receiver",
              "type": "address"
            },
            {
              "internalType": "bytes32",
              "name": "guid",
              "type": "bytes32"
            },
            {
              "internalType": "bytes",
              "name": "message",
              "type": "bytes"
            },
            {
              "internalType": "bytes",
              "name": "extraData",
              "type": "bytes"
            },
            {
              "internalType": "uint256",
              "name": "gas",
              "type": "uint256"
            },
            {
              "internalType": "uint256",
              "name": "value",
              "type": "uint256"
            }
          ],
          "internalType": "struct SimpleExecutorMock.LzReceiveParam",
          "name": "_lzReceiveParam",
          "type": "tuple"
        },
        {
          "components": [
            {
              "internalType": "address",
              "name": "_receiver",
              "type": "address"
            },
            {
              "internalType": "uint256",
              "name": "_amount",
              "type": "uint256"
            }
          ],
          "internalType": "struct SimpleExecutorMock.NativeDropParam[]",
          "name": "_nativeDropParams",
          "type": "tuple[]"
        }
      ],
      "name": "commitAndExecute",
      "outputs": [],
      "stateMutability": "payable",
      "type": "function"
    },
    {
      "inputs": [
        {
          "internalType": "address",
          "name": "_from",
          "type": "address"
        },
        {
          "internalType": "address",
          "name": "_to",
          "type": "address"
        },
        {
          "internalType": "bytes32",
          "name": "_guid",
          "type": "bytes32"
        },
        {
          "internalType": "uint16",
          "name": "_index",
          "type": "uint16"
        },
        {
          "internalType": "bytes",
          "name": "_message",
          "type": "bytes"
        },
        {
          "internalType": "bytes",
          "name": "_extraData",
          "type": "bytes"
        },
        {
          "internalType": "uint256",
          "name": "_gasLimit",
          "type": "uint256"
        }
      ],
      "name": "compose302",
      "outputs": [],
      "stateMutability": "payable",
      "type": "function"
    },
    {
      "inputs": [],
      "name": "defaultMultiplierBps",
      "outputs": [
        {
          "internalType": "uint16",
          "name": "",
          "type": "uint16"
        }
      ],
      "stateMutability": "view",
      "type": "function"
    },
    {
      "inputs": [
        {
          "internalType": "uint32",
          "name": "dstEid",
          "type": "uint32"
        }
      ],
      "name": "dstConfig",
      "outputs": [
        {
          "internalType": "uint64",
          "name": "lzReceiveBaseGas",
          "type": "uint64"
        },
        {
          "internalType": "uint16",
          "name": "multiplierBps",
          "type": "uint16"
        },
        {
          "internalType": "uint128",
          "name": "floorMarginUSD",
          "type": "uint128"
        },
        {
          "internalType": "uint128",
          "name": "nativeCap",
          "type": "uint128"
        },
        {
          "internalType": "uint64",
          "name": "lzComposeBaseGas",
          "type": "uint64"
        }
      ],
      "stateMutability": "view",
      "type": "function"
    },
    {
      "inputs": [],
      "name": "endpoint",
      "outputs": [
        {
          "internalType": "contract ILayerZeroEndpointV2",
          "name": "",
          "type": "address"
        }
      ],
      "stateMutability": "view",
      "type": "function"
    },
    {
      "inputs": [
        {
          "components": [
            {
              "internalType": "uint32",
              "name": "srcEid",
              "type": "uint32"
            },
            {
              "internalType": "bytes32",
              "name": "sender",
              "type": "bytes32"
            },
            {
              "internalType": "uint64",
              "name": "nonce",
              "type": "uint64"
            }
          ],
          "internalType": "struct Origin",
          "name": "_origin",
          "type": "tuple"
        },
        {
          "internalType": "address",
          "name": "_receiver",
          "type": "address"
        }
      ],
      "name": "executable",
      "outputs": [
        {
          "internalType": "enum ExecutionState",
          "name": "",
          "type": "uint8"
        }
      ],
      "stateMutability": "view",
      "type": "function"
    },
    {
      "inputs": [
        {
          "components": [
            {
              "internalType": "address",
              "name": "receiver",
              "type": "address"
            },
            {
              "components": [
                {
                  "internalType": "uint32",
                  "name": "srcEid",
                  "type": "uint32"
                },
                {
                  "internalType": "bytes32",
                  "name": "sender",
                  "type": "bytes32"
                },
                {
                  "internalType": "uint64",
                  "name": "nonce",
                  "type": "uint64"
                }
              ],
              "internalType": "struct Origin",
              "name": "origin",
              "type": "tuple"
            },
            {
              "internalType": "bytes32",
              "name": "guid",
              "type": "bytes32"
            },
            {
              "internalType": "bytes",
              "name": "message",
              "type": "bytes"
            },
            {
              "internalType": "bytes",
              "name": "extraData",
              "type": "bytes"
            },
            {
              "internalType": "uint256",
              "name": "gasLimit",
              "type": "uint256"
            }
          ],
          "internalType": "struct IExecutor.ExecutionParams",
          "name": "_executionParams",
          "type": "tuple"
        }
      ],
      "name": "execute302",
      "outputs": [],
      "stateMutability": "payable",
      "type": "function"
    },
    {
      "inputs": [
        {
          "internalType": "uint32",
          "name": "_dstEid",
          "type": "uint32"
        },
        {
          "internalType": "address",
          "name": "_sender",
          "type": "address"
        },
        {
          "internalType": "uint256",
          "name": "_calldataSize",
          "type": "uint256"
        },
        {
          "internalType": "bytes",
          "name": "_options",
          "type": "bytes"
        }
      ],
      "name": "getFee",
      "outputs": [
        {
          "internalType": "uint256",
          "name": "fee",
          "type": "uint256"
        }
      ],
      "stateMutability": "view",
      "type": "function"
    },
    {
      "inputs": [
        {
          "internalType": "address",
          "name": "_sender",
          "type": "address"
        },
        {
          "internalType": "bytes",
          "name": "_options",
          "type": "bytes"
        }
      ],
      "name": "getFee",
      "outputs": [
        {
          "internalType": "uint256",
          "name": "fee",
          "type": "uint256"
        }
      ],
      "stateMutability": "view",
      "type": "function"
    },
    {
      "inputs": [
        {
          "internalType": "bytes32",
          "name": "role",
          "type": "bytes32"
        }
      ],
      "name": "getRoleAdmin",
      "outputs": [
        {
          "internalType": "bytes32",
          "name": "",
          "type": "bytes32"
        }
      ],
      "stateMutability": "view",
      "type": "function"
    },
    {
      "inputs": [
        {
          "internalType": "uint32",
          "name": "_eid",
          "type": "uint32"
        }
      ],
      "name": "getSupportedOptionTypes",
      "outputs": [
        {
          "internalType": "uint8[]",
          "name": "",
          "type": "uint8[]"
        }
      ],
      "stateMutability": "view",
      "type": "function"
    },
    {
      "inputs": [
        {
          "internalType": "bytes32",
          "name": "role",
          "type": "bytes32"
        },
        {
          "internalType": "address",
          "name": "account",
          "type": "address"
        }
      ],
      "name": "grantRole",
      "outputs": [],
      "stateMutability": "nonpayable",
      "type": "function"
    },
    {
      "inputs": [
        {
          "internalType": "address",
          "name": "_sender",
          "type": "address"
        }
      ],
      "name": "hasAcl",
      "outputs": [
        {
          "internalType": "bool",
          "name": "",
          "type": "bool"
        }
      ],
      "stateMutability": "view",
      "type": "function"
    },
    {
      "inputs": [
        {
          "internalType": "bytes32",
          "name": "role",
          "type": "bytes32"
        },
        {
          "internalType": "address",
          "name": "account",
          "type": "address"
        }
      ],
      "name": "hasRole",
      "outputs": [
        {
          "internalType": "bool",
          "name": "",
          "type": "bool"
        }
      ],
      "stateMutability": "view",
      "type": "function"
    },
    {
      "inputs": [
        {
          "components": [
            {
              "internalType": "uint32",
              "name": "srcEid",
              "type": "uint32"
            },
            {
              "internalType": "bytes32",
              "name": "sender",
              "type": "bytes32"
            },
            {
              "internalType": "uint64",
              "name": "nonce",
              "type": "uint64"
            }
          ],
          "internalType": "struct Origin",
          "name": "_origin",
          "type": "tuple"
        },
        {
          "internalType": "address",
          "name": "_receiver",
          "type": "address"
        }
      ],
      "name": "initializable",
      "outputs": [
        {
          "internalType": "bool",
          "name": "",
          "type": "bool"
        }
      ],
      "stateMutability": "view",
      "type": "function"
    },
    {
      "inputs": [
        {
          "internalType": "address",
          "name": "_endpoint",
          "type": "address"
        }
      ],
      "name": "initialize",
      "outputs": [],
      "stateMutability": "nonpayable",
      "type": "function"
    },
    {
      "inputs": [],
      "name": "localEidV2",
      "outputs": [
        {
          "internalType": "uint32",
          "name": "",
          "type": "uint32"
        }
      ],
      "stateMutability": "view",
      "type": "function"
    },
    {
      "inputs": [
        {
          "components": [
            {
              "internalType": "uint32",
              "name": "srcEid",
              "type": "uint32"
            },
            {
              "internalType": "bytes32",
              "name": "sender",
              "type": "bytes32"
            },
            {
              "internalType": "uint64",
              "name": "nonce",
              "type": "uint64"
            }
          ],
          "internalType": "struct Origin",
          "name": "_origin",
          "type": "tuple"
        },
        {
          "internalType": "uint32",
          "name": "_dstEid",
          "type": "uint32"
        },
        {
          "internalType": "address",
          "name": "_oapp",
          "type": "address"
        },
        {
          "components": [
            {
              "internalType": "address",
              "name": "receiver",
              "type": "address"
            },
            {
              "internalType": "uint256",
              "name": "amount",
              "type": "uint256"
            }
          ],
          "internalType": "struct IExecutor.NativeDropParams[]",
          "name": "_nativeDropParams",
          "type": "tuple[]"
        },
        {
          "internalType": "uint256",
          "name": "_nativeDropGasLimit",
          "type": "uint256"
        }
      ],
      "name": "nativeDrop",
      "outputs": [],
      "stateMutability": "payable",
      "type": "function"
    },
    {
      "inputs": [
        {
          "components": [
            {
              "internalType": "address",
              "name": "receiver",
              "type": "address"
            },
            {
              "internalType": "uint256",
              "name": "amount",
              "type": "uint256"
            }
          ],
          "internalType": "struct IExecutor.NativeDropParams[]",
          "name": "_nativeDropParams",
          "type": "tuple[]"
        },
        {
          "internalType": "uint256",
          "name": "_nativeDropGasLimit",
          "type": "uint256"
        },
        {
          "components": [
            {
              "internalType": "address",
              "name": "receiver",
              "type": "address"
            },
            {
              "components": [
                {
                  "internalType": "uint32",
                  "name": "srcEid",
                  "type": "uint32"
                },
                {
                  "internalType": "bytes32",
                  "name": "sender",
                  "type": "bytes32"
                },
                {
                  "internalType": "uint64",
                  "name": "nonce",
                  "type": "uint64"
                }
              ],
              "internalType": "struct Origin",
              "name": "origin",
              "type": "tuple"
            },
            {
              "internalType": "bytes32",
              "name": "guid",
              "type": "bytes32"
            },
            {
              "internalType": "bytes",
              "name": "message",
              "type": "bytes"
            },
            {
              "internalType": "bytes",
              "name": "extraData",
              "type": "bytes"
            },
            {
              "internalType": "uint256",
              "name": "gasLimit",
              "type": "uint256"
            }
          ],
          "internalType": "struct IExecutor.ExecutionParams",
          "name": "_executionParams",
          "type": "tuple"
        }
      ],
      "name": "nativeDropAndExecute302",
      "outputs": [],
      "stateMutability": "payable",
      "type": "function"
    },
    {
      "inputs": [],
      "name": "priceFeed",
      "outputs": [
        {
          "internalType": "address",
          "name": "",
          "type": "address"
        }
      ],
      "stateMutability": "view",
      "type": "function"
    },
    {
      "inputs": [
        {
          "internalType": "address",
          "name": "receiveLib",
          "type": "address"
        }
      ],
      "name": "receiveLibToView",
      "outputs": [
        {
          "internalType": "address",
          "name": "receiveLibView",
          "type": "address"
        }
      ],
      "stateMutability": "view",
      "type": "function"
    },
    {
      "inputs": [],
      "name": "receiveUln302",
      "outputs": [
        {
          "internalType": "address",
          "name": "",
          "type": "address"
        }
      ],
      "stateMutability": "view",
      "type": "function"
    },
    {
      "inputs": [
        {
          "internalType": "bytes32",
          "name": "",
          "type": "bytes32"
        },
        {
          "internalType": "address",
          "name": "",
          "type": "address"
        }
      ],
      "name": "renounceRole",
      "outputs": [],
      "stateMutability": "pure",
      "type": "function"
    },
    {
      "inputs": [
        {
          "internalType": "bytes32",
          "name": "role",
          "type": "bytes32"
        },
        {
          "internalType": "address",
          "name": "account",
          "type": "address"
        }
      ],
      "name": "revokeRole",
      "outputs": [],
      "stateMutability": "nonpayable",
      "type": "function"
    },
    {
      "inputs": [
        {
          "internalType": "uint16",
          "name": "_multiplierBps",
          "type": "uint16"
        }
      ],
      "name": "setDefaultMultiplierBps",
      "outputs": [],
      "stateMutability": "nonpayable",
      "type": "function"
    },
    {
      "inputs": [
        {
          "components": [
            {
              "internalType": "uint32",
              "name": "dstEid",
              "type": "uint32"
            },
            {
              "internalType": "uint64",
              "name": "lzReceiveBaseGas",
              "type": "uint64"
            },
            {
              "internalType": "uint64",
              "name": "lzComposeBaseGas",
              "type": "uint64"
            },
            {
              "internalType": "uint16",
              "name": "multiplierBps",
              "type": "uint16"
            },
            {
              "internalType": "uint128",
              "name": "floorMarginUSD",
              "type": "uint128"
            },
            {
              "internalType": "uint128",
              "name": "nativeCap",
              "type": "uint128"
            }
          ],
          "internalType": "struct IExecutor.DstConfigParam[]",
          "name": "_params",
          "type": "tuple[]"
        }
      ],
      "name": "setDstConfig",
      "outputs": [],
      "stateMutability": "nonpayable",
      "type": "function"
    },
    {
      "inputs": [
        {
          "internalType": "address",
          "name": "_priceFeed",
          "type": "address"
        }
      ],
      "name": "setPriceFeed",
      "outputs": [],
      "stateMutability": "nonpayable",
      "type": "function"
    },
    {
      "inputs": [
        {
          "internalType": "uint32",
          "name": "_eid",
          "type": "uint32"
        },
        {
          "internalType": "uint8[]",
          "name": "_optionTypes",
          "type": "uint8[]"
        }
      ],
      "name": "setSupportedOptionTypes",
      "outputs": [],
      "stateMutability": "nonpayable",
      "type": "function"
    },
    {
      "inputs": [
        {
          "internalType": "bytes4",
          "name": "interfaceId",
          "type": "bytes4"
        }
      ],
      "name": "supportsInterface",
      "outputs": [
        {
          "internalType": "bool",
          "name": "",
          "type": "bool"
        }
      ],
      "stateMutability": "view",
      "type": "function"
    },
    {
      "inputs": [
        {
          "components": [
            {
              "internalType": "uint32",
              "name": "srcEid",
              "type": "uint32"
            },
            {
              "internalType": "bytes32",
              "name": "sender",
              "type": "bytes32"
            },
            {
              "internalType": "uint64",
              "name": "nonce",
              "type": "uint64"
            }
          ],
          "internalType": "struct Origin",
          "name": "_origin",
          "type": "tuple"
        },
        {
          "internalType": "address",
          "name": "_receiver",
          "type": "address"
        },
        {
          "internalType": "address",
          "name": "_receiveLib",
          "type": "address"
        },
        {
          "internalType": "bytes32",
          "name": "_payloadHash",
          "type": "bytes32"
        }
      ],
      "name": "verifiable",
      "outputs": [
        {
          "internalType": "bool",
          "name": "",
          "type": "bool"
        }
      ],
      "stateMutability": "view",
      "type": "function"
    },
    {
      "inputs": [
        {
          "internalType": "address",
          "name": "_lib",
          "type": "address"
        },
        {
          "internalType": "address",
          "name": "_to",
          "type": "address"
        },
        {
          "internalType": "uint256",
          "name": "_amount",
          "type": "uint256"
        }
      ],
      "name": "withdrawFee",
      "outputs": [],
      "stateMutability": "nonpayable",
      "type": "function"
    },
    {
      "inputs": [],
      "name": "workerFeeLib",
      "outputs": [
        {
          "internalType": "address",
          "name": "",
          "type": "address"
        }
      ],
      "stateMutability": "view",
      "type": "function"
    }
  ],
  "transactionHash": "0x25d8203d3c00a878c92e1006693dda4cde289bf2d419ab3b5a906454e455655b",
  "args": [
    "0x6EDCE65403992e310A62460808c4b910D972f10f",
    [
      "0xcc1ae8Cf5D3904Cef3360A9532B477529b177cCE"
    ],
    "0xdAf00F5eE2158dD58E0d3857851c432E34A3A851",
    "0x14B90216c2CEB18427f08d6Dd539b32D58A410ad"
  ],
  "numDeployments": 1,
  "solcInputHash": "2a25d81b29c9df0cfb510674deac08b4",
  "bytecode": "0x60806040523480156200001157600080fd5b5060405162003428380380620034288339810160408190526200003491620003c0565b60018055600280546001600160a01b0319166001600160a01b0386169081179091556040805163416ecebf60e01b8152905163416ecebf916004808201926020929091908290030181865afa15801562000092573d6000803e3d6000fd5b505050506040513d601f19601f82011682018060405250810190620000b89190620004ce565b6035805463ffffffff191663ffffffff929092169190911790556037805461ffff60e01b191661017760e51b179055603880546001600160a01b0319169055620001046000336200022a565b50620001317fa49807205ce4d355092ef5a8a18f56e8913cf4a201fbe287825b095693c21775336200022a565b5060005b835181101562000197576200018d7f724aface199fe5bed93ae8508474576a9adf3dc443b2c451842a2242919f19de858381518110620001795762000179620004fd565b60200260200101516200022a60201b60201c565b5060010162000135565b5060358054600160201b600160c01b0319166401000000006001600160a01b038581169182029290921790925560008281526036602090815260409182902080546001600160a01b031916938616938417905581519384528301919091527f142c46535a86ac791981f3f16bdfd58291f3f03fc3fd111646f3f0e4eb326b63910160405180910390a15050505062000550565b60007f74845de37cfabd357633214b47fa91ccd19b05b7c5a08ac22c187f811fb62bca831480156200027d57506000838152602081815260408083206001600160a01b038616845290915290205460ff16155b15620002ca5760378054601490620002a590600160a01b90046001600160401b031662000513565b91906101000a8154816001600160401b0302191690836001600160401b031602179055505b620002d68383620002df565b90505b92915050565b6000828152602081815260408083206001600160a01b038516845290915281205460ff1662000384576000838152602081815260408083206001600160a01b03861684529091529020805460ff191660011790556200033b3390565b6001600160a01b0316826001600160a01b0316847f2f8788117e7eff1d82e926ec794901d17c78024a50270940304540a733656f0d60405160405180910390a4506001620002d9565b506000620002d9565b80516001600160a01b0381168114620003a557600080fd5b919050565b634e487b7160e01b600052604160045260246000fd5b60008060008060808587031215620003d757600080fd5b620003e2856200038d565b602086810151919550906001600160401b03808211156200040257600080fd5b818801915088601f8301126200041757600080fd5b8151818111156200042c576200042c620003aa565b8060051b604051601f19603f83011681018181108582111715620004545762000454620003aa565b60405291825284820192508381018501918b8311156200047357600080fd5b938501935b828510156200049c576200048c856200038d565b8452938501939285019262000478565b809850505050505050620004b3604086016200038d565b9150620004c3606086016200038d565b905092959194509250565b600060208284031215620004e157600080fd5b815163ffffffff81168114620004f657600080fd5b9392505050565b634e487b7160e01b600052603260045260246000fd5b60006001600160401b038281166002600160401b031981016200054657634e487b7160e01b600052601160045260246000fd5b6001019392505050565b612ec880620005606000396000f3fe6080604052600436106102245760003560e01c8063843c7b0e11610123578063c4d66de8116100ab578063d2ae21041161006f578063d2ae210414610709578063d547741f14610748578063dcfdeb6014610768578063e1e3a7df1461077b578063e395eb5c1461079b57600080fd5b8063c4d66de814610696578063c8f8dcd1146106b6578063cb5026b914610621578063cd88b903146106d6578063cfc32570146106f657600080fd5b80639e944965116100f25780639e94496514610572578063a217fddf14610621578063c015bb7d14610636578063c358de0a14610656578063c416aa511461067657600080fd5b8063843c7b0e146104f7578063861e1ca51461051f5780638624ba071461053f57806391d148541461055257600080fd5b80633d85ac33116101b1578063709eb66411610175578063709eb66414610464578063717e8a4214610484578063724e78da146104a4578063741bef1a146104c45780637cd44734146104e457600080fd5b80633d85ac3314610396578063475b6d9e146103b65780634b4b2efb146103c95780635e280f11146103f65780636f1788351461042e57600080fd5b806326e67a37116101f857806326e67a37146102f35780632baf0be7146103205780632de11376146103365780632f2ff15d1461035657806336568abe1461037657600080fd5b8062bf2e801461022957806301ffc9a7146102635780631095b6d714610293578063248a9ca3146102b5575b600080fd5b34801561023557600080fd5b5060375461024b90600160e01b900461ffff1681565b60405161ffff90911681526020015b60405180910390f35b34801561026f57600080fd5b5061028361027e366004612063565b6107cd565b604051901515815260200161025a565b34801561029f57600080fd5b506102b36102ae3660046120a4565b610804565b005b3480156102c157600080fd5b506102e56102d03660046120e0565b60009081526020819052604090206001015490565b60405190815260200161025a565b3480156102ff57600080fd5b5061031361030e36600461210d565b6108b5565b60405161025a9190612128565b34801561032c57600080fd5b506102e560001981565b34801561034257600080fd5b5061028361035136600461216f565b61093c565b34801561036257600080fd5b506102b361037136600461218a565b6109d3565b34801561038257600080fd5b506102b361039136600461218a565b6109fe565b3480156103a257600080fd5b506102b36103b1366004612262565b610a17565b6102b36103c43660046123cc565b610b8e565b3480156103d557600080fd5b506103e96103e43660046124bb565b610bcf565b60405161025a91906124fc565b34801561040257600080fd5b50600254610416906001600160a01b031681565b6040516001600160a01b03909116815260200161025a565b34801561043a57600080fd5b5061041661044936600461216f565b6036602052600090815260409020546001600160a01b031681565b34801561047057600080fd5b506102e561047f366004612565565b610e15565b34801561049057600080fd5b506102e561049f366004612565565b610e4b565b3480156104b057600080fd5b506102b36104bf36600461216f565b610eac565b3480156104d057600080fd5b50603854610416906001600160a01b031681565b6102b36104f23660046125d3565b610f12565b34801561050357600080fd5b506035546104169064010000000090046001600160a01b031681565b34801561052b57600080fd5b5061028361053a3660046124bb565b610fbc565b6102b361054d36600461269e565b61103b565b34801561055e57600080fd5b5061028361056d36600461218a565b61113e565b34801561057e57600080fd5b506105de61058d36600461210d565b603460205260009081526040902080546001909101546001600160401b038083169261ffff600160401b820416926001600160801b03600160501b90920482169291811691600160801b9091041685565b604080516001600160401b03968716815261ffff90951660208601526001600160801b03938416908501529116606083015291909116608082015260a00161025a565b34801561062d57600080fd5b506102e5600081565b34801561064257600080fd5b506102e5610651366004612710565b611167565b34801561066257600080fd5b506102b3610671366004612762565b6111c6565b34801561068257600080fd5b50603754610416906001600160a01b031681565b3480156106a257600080fd5b506102b36106b136600461216f565b61122e565b3480156106c257600080fd5b506102e56106d1366004612710565b6113a6565b3480156106e257600080fd5b506102b36106f136600461277d565b6113da565b6102b3610704366004612802565b611446565b34801561071557600080fd5b5060375461073090600160a01b90046001600160401b031681565b6040516001600160401b03909116815260200161025a565b34801561075457600080fd5b506102b361076336600461218a565b61150c565b6102b3610776366004612836565b611531565b34801561078757600080fd5b506102836107963660046128b5565b61192b565b3480156107a757600080fd5b506035546107b89063ffffffff1681565b60405163ffffffff909116815260200161025a565b60006001600160e01b03198216637965db0b60e01b14806107fe57506301ffc9a760e01b6001600160e01b03198316145b92915050565b600080516020612e7383398151915261081c81611a58565b6108467f724aface199fe5bed93ae8508474576a9adf3dc443b2c451842a2242919f19de8561113e565b61086357604051635ee08b9760e01b815260040160405180910390fd5b604080516001600160a01b038087168252851660208201529081018390527f9b1bfa7fa9ee420a16e124f794c35ac9f90472acc99140eb2f6447c714cad8eb906060015b60405180910390a150505050565b63ffffffff811660009081526039602090815260409182902080548351818402810184019094528084526060939283018282801561093057602002820191906000526020600020906000905b825461010083900a900460ff168152602060019283018181049485019490930390920291018084116109015790505b50505050509050919050565b60006109687f4270fae16c6d150d00e80b689daca99e8073b1838ff2b6063a37be9d851283e48361113e565b1561097557506000919050565b603754600160a01b90046001600160401b031615806109b957506109b97f74845de37cfabd357633214b47fa91ccd19b05b7c5a08ac22c187f811fb62bca8361113e565b156109c657506001919050565b506000919050565b919050565b6000828152602081905260409020600101546109ee81611a58565b6109f88383611a65565b50505050565b60405163dec9f03160e01b815260040160405180910390fd5b600080516020612e73833981519152610a2f81611a58565b60005b8251811015610b52576000838281518110610a4f57610a4f612901565b6020908102919091018101516040805160a08082018352838501516001600160401b03908116835260608086015161ffff9081168589019081526080808901516001600160801b03908116888a01908152968a01518116948801948552888a01518616918801918252985163ffffffff1660009081526034909a529690982094518554985194518816600160501b026fffffffffffffffffffffffffffffffff60501b1995909216600160401b0269ffffffffffffffffffff1990991690841617979097179290921695909517825551600191820180549351909516600160801b026001600160c01b031990931693169290921717909155919091019050610a32565b507fb99f6de5e22c60c178b03bfacf2daeb4b6089f5b37e0fe2c48a5d5141191fc5382604051610b829190612917565b60405180910390a15050565b600080516020612e73833981519152610ba681611a58565b610bae611af8565b610bbc878787878787611b22565b50610bc660018055565b50505050505050565b60025482516020840151604080860151905163c9fc7bcd60e01b81526001600160a01b03868116600483015263ffffffff909416602482015260448101929092526001600160401b031660648201526000928392169063c9fc7bcd90608401602060405180830381865afa158015610c4b573d6000803e3d6000fd5b505050506040513d601f19601f82011682018060405250810190610c6f91906129b4565b905080158015610d1d5750600254845160208601516040516305b17bb760e41b81526001600160a01b03878116600483015263ffffffff90931660248201526044810191909152911690635b17bb7090606401602060405180830381865afa158015610cdf573d6000803e3d6000fd5b505050506040513d601f19601f82011682018060405250810190610d0391906129cd565b6001600160401b031684604001516001600160401b031611155b15610d2c5760039150506107fe565b6000198114801590610ddc57506002548451602086015160405163283750ff60e21b81526001600160a01b03878116600483015263ffffffff9093166024820152604481019190915291169063a0dd43fc90606401602060405180830381865afa158015610d9e573d6000803e3d6000fd5b505050506040513d601f19601f82011682018060405250810190610dc291906129cd565b6001600160401b031684604001516001600160401b031611155b15610deb5760029150506107fe565b8015801590610dfc57506000198114155b15610e0b5760019150506107fe565b5060009392505050565b600084610e218161093c565b610e3e57604051634ab5ebcd60e01b815260040160405180910390fd5b5060009695505050505050565b60007f724aface199fe5bed93ae8508474576a9adf3dc443b2c451842a2242919f19de610e7781611a58565b85610e818161093c565b610e9e57604051634ab5ebcd60e01b815260040160405180910390fd5b506000979650505050505050565b600080516020612e73833981519152610ec481611a58565b603880546001600160a01b0319166001600160a01b0384169081179091556040519081527ff724a45d041687842411f2b977ef22ab8f43c8f1104f4592b42a00f9b34a643d90602001610b82565b600080516020612e73833981519152610f2a81611a58565b610f32611af8565b6002546040516391d20fa160e01b81526001600160a01b03909116906391d20fa19084903490610f74908f908f908f908f908f908f908f908f90600401612a13565b6000604051808303818589803b158015610f8d57600080fd5b5088f1158015610fa1573d6000803e3d6000fd5b505050505050610fb060018055565b50505050505050505050565b60025460405163861e1ca560e01b81526000916001600160a01b03169063861e1ca590610fef9086908690600401612a73565b602060405180830381865afa925050508015611028575060408051601f3d908101601f1916820190925261102591810190612ab1565b60015b611034575060006107fe565b90506107fe565b600080516020612e7383398151915261105381611a58565b61105b611af8565b60355460009061108290602085019063ffffffff1661107a828761216f565b898989611b22565b905060006110908234612ae9565b6002549091506001600160a01b0316630c0c389e60e086013583602088016110b8818a61216f565b60808a01356110ca60a08c018c612afc565b6110d760c08e018e612afc565b6040518a63ffffffff1660e01b81526004016110f99796959493929190612b7f565b6000604051808303818589803b15801561111257600080fd5b5088f1158015611126573d6000803e3d6000fd5b505050505050505061113760018055565b5050505050565b6000918252602082815260408084206001600160a01b0393909316845291905290205460ff1690565b60007f724aface199fe5bed93ae8508474576a9adf3dc443b2c451842a2242919f19de61119381611a58565b8461119d8161093c565b6111ba57604051634ab5ebcd60e01b815260040160405180910390fd5b50600095945050505050565b600080516020612e738339815191526111de81611a58565b6037805461ffff60e01b1916600160e01b61ffff8516908102919091179091556040519081527f7af0ac740036ffb1c97b03697859d729e80a44ae5030543d64971c313565ab4d90602001610b82565b60006112587fb53127684a568b3173ae13b9f8a6016e243e63b6e8ee1178d6a717850b5d61035490565b90506001600160a01b038116611297576001600160a01b037fb53127684a568b3173ae13b9f8a6016e243e63b6e8ee1178d6a717850b5d6103556112ac565b336001600160a01b038216146112ac57600080fd5b60006112b6611c89565b805490915060ff600160401b82041615906001600160401b03166000811580156112dd5750825b90506000826001600160401b031660011480156112f95750303b155b905081158015611307575080155b156113255760405163f92ee8a960e01b815260040160405180910390fd5b845467ffffffffffffffff19166001178555831561134f57845460ff60401b1916600160401b1785555b61135887611cb2565b8315610bc657845460ff60401b19168555604051600181527fc7f505b2f371ae2175ee4913f4499e1f2633a7b5936321eed1cdaeb6115181d29060200160405180910390a150505050505050565b6000836113b28161093c565b6113cf57604051634ab5ebcd60e01b815260040160405180910390fd5b506000949350505050565b600080516020612e738339815191526113f281611a58565b63ffffffff84166000908152603960205260409020611412908484611fa5565b507f7a68270ca5c336167a62e36d8b7a73fecfabd6ce0ddc70be859bf4e2e3fb02d48484846040516108a793929190612bd5565b600080516020612e7383398151915261145e81611a58565b611466611af8565b6002546001600160a01b0316630c0c389e60e0840135346020860161148b818861216f565b608088013561149d60a08a018a612afc565b6114aa60c08c018c612afc565b6040518a63ffffffff1660e01b81526004016114cc9796959493929190612b7f565b6000604051808303818589803b1580156114e557600080fd5b5088f11580156114f9573d6000803e3d6000fd5b50505050505061150860018055565b5050565b60008281526020819052604090206001015461152781611a58565b6109f88383611cc3565b600061155561154536869003860186612c34565b6103e4608087016060880161216f565b9050600381600381111561156b5761156b6124e6565b0361158957604051631fe9c3ef60e11b815260040160405180910390fd5b600281600381111561159d5761159d6124e6565b146118365760355460009064010000000090046001600160a01b0316156115d75760355464010000000090046001600160a01b03166115d9565b855b9050600060016115ef6060880160408901612c50565b6115fc602089018961210d565b60355460208a01359063ffffffff1661161b60808c0160608d0161216f565b60405160f89690961b6001600160f81b031916602087015260c09490941b6001600160c01b031916602186015260e092831b6001600160e01b03199081166029870152602d86019290925290911b16604d8301526001600160a01b0316605182015260710160408051601f198184030181529190529050600060808701356116a660a0890189612afc565b6040516020016116b893929190612c6d565b60408051601f1981840301815291815281516020928301206001600160a01b03808716600090815260369094529190922054919250168061170c576040516303776d1560e31b815260040160405180910390fd5b6040516327d12cd960e01b81526000906001600160a01b038316906327d12cd99061173d9087908790600401612c87565b602060405180830381865afa15801561175a573d6000803e3d6000fd5b505050506040513d601f19601f8201168201806040525081019061177e9190612cdc565b90506001816003811115611794576117946124e6565b036117fe57604051630894edf160e01b81526001600160a01b03861690630894edf1906117c79087908790600401612c87565b600060405180830381600087803b1580156117e157600080fd5b505af11580156117f5573d6000803e3d6000fd5b50505050611830565b6000816003811115611812576118126124e6565b03611830576040516306f5423360e11b815260040160405180910390fd5b50505050505b60005b82811015611882573684848381811061185457611854612901565b604002919091019150611879905061186f602083018361216f565b8260200135611d4d565b50600101611839565b506002546001600160a01b0316630c0c389e60e0860135610100870135876118b0608082016060830161216f565b60808a01356118c260a08c018c612afc565b6118cf60c08e018e612afc565b6040518a63ffffffff1660e01b81526004016118f19796959493929190612b7f565b6000604051808303818589803b15801561190a57600080fd5b5088f115801561191e573d6000803e3d6000fd5b5050505050505050505050565b6002548451604051639d7f977560e01b81526001600160a01b03868116600483015263ffffffff909216602482015284821660448201526000929190911690639d7f977590606401602060405180830381865afa158015611990573d6000803e3d6000fd5b505050506040513d601f19601f820116820180604052508101906119b49190612ab1565b6119c057506000611a50565b60025460405163c9a54a9960e01b81526001600160a01b039091169063c9a54a99906119f29088908890600401612a73565b602060405180830381865afa158015611a0f573d6000803e3d6000fd5b505050506040513d601f19601f82011682018060405250810190611a339190612ab1565b611a3f57506000611a50565b81611a4c57506000611a50565b5060015b949350505050565b611a628133611e04565b50565b60007f74845de37cfabd357633214b47fa91ccd19b05b7c5a08ac22c187f811fb62bca83148015611a9d5750611a9b838361113e565b155b15611ae75760378054601490611ac290600160a01b90046001600160401b0316612cfd565b91906101000a8154816001600160401b0302191690836001600160401b031602179055505b611af18383611e3d565b9392505050565b600260015403611b1b57604051633ee5aeb560e01b815260040160405180910390fd5b6002600155565b600080836001600160401b03811115611b3d57611b3d6121b6565b604051908082528060200260200182016040528015611b66578160200160208202803683370190505b50905060005b84811015611c3c576000868683818110611b8857611b88612901565b905060400201803603810190611b9e9190612d23565b9050600081600001516001600160a01b031682602001518790604051600060405180830381858888f193505050503d8060008114611bf8576040519150601f19603f3d011682016040523d82523d6000602084013e611bfd565b606091505b5050905080848481518110611c1457611c14612901565b911515602092830291909101820152820151611c309086612d79565b94505050600101611b6c565b507f1f48172553121d8bf273ce457a5a3dd180d464e0add3e0143045b7fa039c3468888888888886604051611c7696959493929190612dca565b60405180910390a1509695505050505050565b6000807ff0c57e16840df040f15088dc2f81fe391c3923bec73e23a9662efc9c229c6a006107fe565b611cba611ecf565b611a6281611ef6565b60007f74845de37cfabd357633214b47fa91ccd19b05b7c5a08ac22c187f811fb62bca83148015611cf95750611cf9838361113e565b15611d435760378054601490611d1e90600160a01b90046001600160401b0316612e4f565b91906101000a8154816001600160401b0302191690836001600160401b031602179055505b611af18383611f20565b6001600160a01b038216611d74576040516306b7a93160e41b815260040160405180910390fd5b6000826001600160a01b03168260405160006040518083038185875af1925050503d8060008114611dc1576040519150601f19603f3d011682016040523d82523d6000602084013e611dc6565b606091505b5050905080611dff57604051631196f20d60e21b81526001600160a01b0384166004820152602481018390526044015b60405180910390fd5b505050565b611e0e828261113e565b6115085760405163e2517d3f60e01b81526001600160a01b038216600482015260248101839052604401611df6565b6000611e49838361113e565b611ec7576000838152602081815260408083206001600160a01b03861684529091529020805460ff19166001179055611e7f3390565b6001600160a01b0316826001600160a01b0316847f2f8788117e7eff1d82e926ec794901d17c78024a50270940304540a733656f0d60405160405180910390a45060016107fe565b5060006107fe565b611ed7611f8b565b611ef457604051631afcd79f60e31b815260040160405180910390fd5b565b611efe611ecf565b600280546001600160a01b0319166001600160a01b0392909216919091179055565b6000611f2c838361113e565b15611ec7576000838152602081815260408083206001600160a01b0386168085529252808320805460ff1916905551339286917ff6391f5c32d9c69d2a47ea670b442974b53935d1edc7fd64eb21e047a839171b9190a45060016107fe565b6000611f95611c89565b54600160401b900460ff16919050565b82805482825590600052602060002090601f0160209004810192821561203e5791602002820160005b8382111561200f57833560ff1683826101000a81548160ff021916908360ff1602179055509260200192600101602081600001049283019260010302611fce565b801561203c5782816101000a81549060ff021916905560010160208160000104928301926001030261200f565b505b5061204a92915061204e565b5090565b5b8082111561204a576000815560010161204f565b60006020828403121561207557600080fd5b81356001600160e01b031981168114611af157600080fd5b80356001600160a01b03811681146109ce57600080fd5b6000806000606084860312156120b957600080fd5b6120c28461208d565b92506120d06020850161208d565b9150604084013590509250925092565b6000602082840312156120f257600080fd5b5035919050565b803563ffffffff811681146109ce57600080fd5b60006020828403121561211f57600080fd5b611af1826120f9565b6020808252825182820181905260009190848201906040850190845b8181101561216357835160ff1683529284019291840191600101612144565b50909695505050505050565b60006020828403121561218157600080fd5b611af18261208d565b6000806040838503121561219d57600080fd5b823591506121ad6020840161208d565b90509250929050565b634e487b7160e01b600052604160045260246000fd5b60405160c081016001600160401b03811182821017156121ee576121ee6121b6565b60405290565b604051601f8201601f191681016001600160401b038111828210171561221c5761221c6121b6565b604052919050565b6001600160401b0381168114611a6257600080fd5b803561ffff811681146109ce57600080fd5b80356001600160801b03811681146109ce57600080fd5b6000602080838503121561227557600080fd5b82356001600160401b038082111561228c57600080fd5b818501915085601f8301126122a057600080fd5b8135818111156122b2576122b26121b6565b6122c0848260051b016121f4565b818152848101925060c09182028401850191888311156122df57600080fd5b938501935b828510156123755780858a0312156122fc5760008081fd5b6123046121cc565b61230d866120f9565b81528686013561231c81612224565b8188015260408681013561232f81612224565b908201526060612340878201612239565b90820152608061235187820161224b565b9082015260a061236287820161224b565b90820152845293840193928501926122e4565b50979650505050505050565b60008083601f84011261239357600080fd5b5081356001600160401b038111156123aa57600080fd5b6020830191508360208260061b85010111156123c557600080fd5b9250929050565b60008060008060008086880360e08112156123e657600080fd5b60608112156123f457600080fd5b50869550612404606088016120f9565b94506124126080880161208d565b935060a08701356001600160401b0381111561242d57600080fd5b61243989828a01612381565b979a969950949794969560c090950135949350505050565b60006060828403121561246357600080fd5b604051606081018181106001600160401b0382111715612485576124856121b6565b604052905080612494836120f9565b81526020830135602082015260408301356124ae81612224565b6040919091015292915050565b600080608083850312156124ce57600080fd5b6124d88484612451565b91506121ad6060840161208d565b634e487b7160e01b600052602160045260246000fd5b602081016004831061251e57634e487b7160e01b600052602160045260246000fd5b91905290565b60008083601f84011261253657600080fd5b5081356001600160401b0381111561254d57600080fd5b6020830191508360208285010111156123c557600080fd5b60008060008060006080868803121561257d57600080fd5b612586866120f9565b94506125946020870161208d565b93506040860135925060608601356001600160401b038111156125b657600080fd5b6125c288828901612524565b969995985093965092949392505050565b600080600080600080600080600060e08a8c0312156125f157600080fd5b6125fa8a61208d565b985061260860208b0161208d565b975060408a0135965061261d60608b01612239565b955060808a01356001600160401b038082111561263957600080fd5b6126458d838e01612524565b909750955060a08c013591508082111561265e57600080fd5b5061266b8c828d01612524565b9a9d999c50979a9699959894979660c00135949350505050565b6000610100828403121561269857600080fd5b50919050565b600080600080606085870312156126b457600080fd5b84356001600160401b03808211156126cb57600080fd5b6126d788838901612381565b90965094506020870135935060408701359150808211156126f757600080fd5b5061270487828801612685565b91505092959194509250565b60008060006040848603121561272557600080fd5b61272e8461208d565b925060208401356001600160401b0381111561274957600080fd5b61275586828701612524565b9497909650939450505050565b60006020828403121561277457600080fd5b611af182612239565b60008060006040848603121561279257600080fd5b61279b846120f9565b925060208401356001600160401b03808211156127b757600080fd5b818601915086601f8301126127cb57600080fd5b8135818111156127da57600080fd5b8760208260051b85010111156127ef57600080fd5b6020830194508093505050509250925092565b60006020828403121561281457600080fd5b81356001600160401b0381111561282a57600080fd5b611a5084828501612685565b6000806000806060858703121561284c57600080fd5b6128558561208d565b935060208501356001600160401b038082111561287157600080fd5b90860190610120828903121561288657600080fd5b9093506040860135908082111561289c57600080fd5b506128a987828801612381565b95989497509550505050565b60008060008060c085870312156128cb57600080fd5b6128d58686612451565b93506128e36060860161208d565b92506128f16080860161208d565b9396929550929360a00135925050565b634e487b7160e01b600052603260045260246000fd5b602080825282518282018190526000919060409081850190868401855b828110156129a7578151805163ffffffff168552868101516001600160401b039081168887015286820151168686015260608082015161ffff16908601526080808201516001600160801b039081169187019190915260a091820151169085015260c09093019290850190600101612934565b5091979650505050505050565b6000602082840312156129c657600080fd5b5051919050565b6000602082840312156129df57600080fd5b8151611af181612224565b81835281816020850137506000828201602090810191909152601f909101601f19169091010190565b6001600160a01b038981168252881660208201526040810187905261ffff8616606082015260c060808201819052600090612a5190830186886129ea565b82810360a0840152612a648185876129ea565b9b9a5050505050505050505050565b825163ffffffff168152602080840151908201526040928301516001600160401b0316928101929092526001600160a01b0316606082015260800190565b600060208284031215612ac357600080fd5b81518015158114611af157600080fd5b634e487b7160e01b600052601160045260246000fd5b818103818111156107fe576107fe612ad3565b6000808335601e19843603018112612b1357600080fd5b8301803591506001600160401b03821115612b2d57600080fd5b6020019150368190038213156123c557600080fd5b63ffffffff612b50826120f9565b168252602081013560208301526040810135612b6b81612224565b6001600160401b0381166040840152505050565b612b898189612b42565b60018060a01b038716606082015285608082015260e060a08201526000612bb460e0830186886129ea565b82810360c0840152612bc78185876129ea565b9a9950505050505050505050565b63ffffffff841681526040602080830182905290820183905260009084906060840183805b87811015612c2657843560ff8116808214612c13578384fd5b8452509383019391830191600101612bfa565b509098975050505050505050565b600060608284031215612c4657600080fd5b611af18383612451565b600060208284031215612c6257600080fd5b8135611af181612224565b838152818360208301376000910160200190815292915050565b604081526000835180604084015260005b81811015612cb55760208187018101516060868401015201612c98565b506000606082850101526060601f19601f8301168401019150508260208301529392505050565b600060208284031215612cee57600080fd5b815160048110611af157600080fd5b60006001600160401b03808316818103612d1957612d19612ad3565b6001019392505050565b600060408284031215612d3557600080fd5b604051604081018181106001600160401b0382111715612d5757612d576121b6565b604052612d638361208d565b8152602083013560208201528091505092915050565b808201808211156107fe576107fe612ad3565b60008151808452602080850194506020840160005b83811015612dbf578151151587529582019590820190600101612da1565b509495945050505050565b600060e08201612dda838a612b42565b63ffffffff881660608401526001600160a01b03878116608085015260e060a0850152908590528590610100840160005b87811015612e3c5782612e1d8561208d565b1682526020848101359083015260409384019390910190600101612e0b565b5084810360c0860152612a648187612d8c565b60006001600160401b03821680612e6857612e68612ad3565b600019019291505056fea49807205ce4d355092ef5a8a18f56e8913cf4a201fbe287825b095693c21775a264697066735822122036505fcf70e65693eb675dd5dddfd012af700b4c33e53735f756633d39c0de9964736f6c63430008160033",
  "devdoc": {
    "errors": {
      "AccessControlBadConfirmation()": [
        {
          "details": "The caller of a function is not the expected one. NOTE: Don't confuse with {AccessControlUnauthorizedAccount}."
        }
      ],
      "AccessControlUnauthorizedAccount(address,bytes32)": [
        {
          "details": "The `account` is missing a role."
        }
      ],
      "InvalidInitialization()": [
        {
          "details": "The contract is already initialized."
        }
      ],
      "NotInitializing()": [
        {
          "details": "The contract is not initializing."
        }
      ],
      "ReentrancyGuardReentrantCall()": [
        {
          "details": "Unauthorized reentrant call."
        }
      ]
    },
    "events": {
      "Initialized(uint64)": {
        "details": "Triggered when the contract has been initialized or reinitialized."
      },
      "RoleAdminChanged(bytes32,bytes32,bytes32)": {
        "details": "Emitted when `newAdminRole` is set as ``role``'s admin role, replacing `previousAdminRole` `DEFAULT_ADMIN_ROLE` is the starting admin for all roles, despite {RoleAdminChanged} not being emitted to signal this."
      },
      "RoleGranted(bytes32,address,address)": {
        "details": "Emitted when `account` is granted `role`. `sender` is the account that originated the contract call. This account bears the admin role (for the granted role). Expected in cases where the role was granted using the internal {AccessControl-_grantRole}."
      },
      "RoleRevoked(bytes32,address,address)": {
        "details": "Emitted when `account` is revoked `role`. `sender` is the account that originated the contract call:   - if using `revokeRole`, it is the admin role bearer   - if using `renounceRole`, it is the role bearer (i.e. `account`)"
      }
    },
    "kind": "dev",
    "methods": {
      "assignJob(address,bytes)": {
        "details": "MOCK: Returns hardcoded 0 fee for read operationsOnly authorized message libraries can call this functionVirtual function - can be overridden for custom fee logic",
        "params": {
          "_options": "Read operation options (ignored in mock)",
          "_sender": "Address requesting the read operation"
        },
        "returns": {
          "fee": "Execution fee (always 0 in mock implementation)"
        }
      },
      "assignJob(uint32,address,uint256,bytes)": {
        "details": "MOCK: Returns hardcoded 0 fee instead of real calculationOnly authorized message libraries can call this functionVirtual function - can be overridden for custom fee logic",
        "params": {
          "_calldataSize": "Size of the execution data",
          "_dstEid": "Destination endpoint ID",
          "_options": "Execution options (ignored in mock)",
          "_sender": "Address requesting the execution"
        },
        "returns": {
          "fee": "Execution fee (always 0 in mock implementation)"
        }
      },
      "compose302(address,address,bytes32,uint16,bytes,bytes,uint256)": {
        "details": "Only admins can call this functionUses try/catch to handle compose failures gracefully with alerts",
        "params": {
          "_extraData": "Additional data for the compose operation",
          "_from": "Address that initiated the compose (contains Origin with srcEid, sender, nonce from original message)",
          "_gasLimit": "Gas limit for the compose execution",
          "_guid": "Global unique identifier for the message",
          "_index": "Index of the compose operation",
          "_message": "Message payload for the compose",
          "_to": "Target contract for the compose operation"
        }
      },
      "constructor": {
        "details": "Deployer automatically gets both DEFAULT_ADMIN_ROLE and ADMIN_ROLEUses address(0) for price feed since fees are mocked",
        "params": {
          "_endpoint": "LayerZero EndpointV2 contract address",
          "_messageLibs": "Array of SEND library addresses that can assign jobs. Recommendation: SendUln302, ReadLib1002."
        }
      },
      "executable((uint32,bytes32,uint64),address)": {
        "details": "check if a message is executable.",
        "returns": {
          "_0": "ExecutionState of Executed, Executable, or NotExecutable"
        }
      },
      "execute302((address,(uint32,bytes32,uint64),bytes32,bytes,bytes,uint256))": {
        "details": "Only admins can call this functionUses try/catch to handle execution failures gracefully with alertsPart of LayerZero V2 protocol - no ULN301 support",
        "params": {
          "_executionParams": "Parameters for message execution including Origin (srcEid, sender, nonce), receiver, guid, message, etc."
        }
      },
      "getFee(address,bytes)": {
        "details": "MOCK: Returns hardcoded 0 fee for read operationsReal executor would calculate based on gas costs and price feedsVirtual function - can be overridden for custom fee logic",
        "params": {
          "_options": "Read operation options (ignored in mock)",
          "_sender": "Address requesting the fee quote"
        },
        "returns": {
          "fee": "Execution fee (always 0 in mock implementation)"
        }
      },
      "getFee(uint32,address,uint256,bytes)": {
        "details": "MOCK: Returns hardcoded 0 fee instead of real calculationReal executor would calculate based on gas costs and price feedsVirtual function - can be overridden for custom fee logic",
        "params": {
          "_calldataSize": "Size of the execution data",
          "_dstEid": "Destination endpoint ID",
          "_options": "Execution options (ignored in mock)",
          "_sender": "Address requesting the fee quote"
        },
        "returns": {
          "fee": "Execution fee (always 0 in mock implementation)"
        }
      },
      "getRoleAdmin(bytes32)": {
        "details": "Returns the admin role that controls `role`. See {grantRole} and {revokeRole}. To change a role's admin, use {_setRoleAdmin}."
      },
      "grantRole(bytes32,address)": {
        "details": "Grants `role` to `account`. If `account` had not been already granted `role`, emits a {RoleGranted} event. Requirements: - the caller must have ``role``'s admin role. May emit a {RoleGranted} event."
      },
      "hasRole(bytes32,address)": {
        "details": "Returns `true` if `account` has been granted `role`."
      },
      "nativeDrop((uint32,bytes32,uint64),uint32,address,(address,uint256)[],uint256)": {
        "details": "Only admins can call this functionRequires sufficient msg.value to cover all drops",
        "params": {
          "_dstEid": "Destination endpoint ID",
          "_nativeDropGasLimit": "Gas limit for each native drop call",
          "_nativeDropParams": "Array of native drop parameters (receiver, amount)",
          "_oapp": "OApp address requesting the drop",
          "_origin": "Origin information (srcEid: source chain ID, sender: original sender address, nonce: message sequence)"
        }
      },
      "nativeDropAndExecute302((address,uint256)[],uint256,(address,(uint32,bytes32,uint64),bytes32,bytes,bytes,uint256))": {
        "details": "Only admins can call this functionFirst performs native drops, then executes with remaining msg.valueUses try/catch for execution failures with alerts",
        "params": {
          "_executionParams": "Parameters including Origin (srcEid, sender, nonce) for message execution after drops",
          "_nativeDropGasLimit": "Gas limit for each native drop call",
          "_nativeDropParams": "Array of native drop parameters (receiver, amount)"
        }
      },
      "revokeRole(bytes32,address)": {
        "details": "Revokes `role` from `account`. If `account` had been granted `role`, emits a {RoleRevoked} event. Requirements: - the caller must have ``role``'s admin role. May emit a {RoleRevoked} event."
      },
      "setDstConfig((uint32,uint64,uint64,uint16,uint128,uint128)[])": {
        "details": "Only admins can call this functionEmits DstConfigSet event for each configuration update",
        "params": {
          "_params": "Array of destination configuration parameters"
        }
      },
      "supportsInterface(bytes4)": {
        "details": "Returns true if this contract implements the interface defined by `interfaceId`. See the corresponding https://eips.ethereum.org/EIPS/eip-165#how-interfaces-are-identified[ERC section] to learn more about how these ids are created. This function call must use less than 30 000 gas."
      },
      "verifiable((uint32,bytes32,uint64),address,address,bytes32)": {
        "details": "check if a message is verifiable."
      }
    },
    "title": "SimpleExecutorMock",
    "version": 1
  },
  "userdoc": {
    "kind": "user",
    "methods": {
      "assignJob(address,bytes)": {
        "notice": "Assigns a read operation job (MOCKED - returns 0 fee)"
      },
      "assignJob(uint32,address,uint256,bytes)": {
        "notice": "Assigns a cross-chain execution job (MOCKED - returns 0 fee)"
      },
      "compose302(address,address,bytes32,uint16,bytes,bytes,uint256)": {
        "notice": "Executes a LayerZero V2 compose operation on the endpoint"
      },
      "constructor": {
        "notice": "Deploys SimpleExecutor with deployer as admin"
      },
      "execute302((address,(uint32,bytes32,uint64),bytes32,bytes,bytes,uint256))": {
        "notice": "Executes a LayerZero V2 message on the endpoint"
      },
      "getFee(address,bytes)": {
        "notice": "Queries execution fee for read operations (MOCKED - returns 0)"
      },
      "getFee(uint32,address,uint256,bytes)": {
        "notice": "Queries execution fee for cross-chain operations (MOCKED - returns 0)"
      },
      "nativeDrop((uint32,bytes32,uint64),uint32,address,(address,uint256)[],uint256)": {
        "notice": "Performs native token drops to specified addresses"
      },
      "nativeDropAndExecute302((address,uint256)[],uint256,(address,(uint32,bytes32,uint64),bytes32,bytes,bytes,uint256))": {
        "notice": "Performs native drops and then executes a LayerZero V2 message"
      },
      "setDstConfig((uint32,uint64,uint64,uint16,uint128,uint128)[])": {
        "notice": "Configures execution parameters for destination chains"
      }
    },
    "notice": "Mock executor for development/testing ONLY - returns 0 fees  DIFFERENCES FROM REAL EXECUTOR: - Implements IWorker instead of inheriting Worker - avoids OpenZeppelin v4/v5 conflicts - Constructor-based (not initialize()) - NO price feed - hardcoded 0 fees (virtual methods for override) - NO ULN301 support - V2 operations only - NO real fee calculations or economic incentives  LIMITATIONS: Zero fees break economic model, cannot upgrade, no mainnet use  USE FOR: Local testing, unit tests, prototyping  DON'T USE: Production, mainnet, real transactions  NOTE: Origin struct contains cross-chain message provenance:   - srcEid: Source chain endpoint ID (e.g., 40161 for Ethereum)   - sender: Original sender address as bytes32   - nonce: Message sequence number for ordering/deduplication",
    "version": 1
  },
  "storageLayout": {
    "storage": [
      {
        "astId": 5621,
        "contract": "contracts/mocks/SimpleExecutorMock.sol:SimpleExecutorMock",
        "label": "_roles",
        "offset": 0,
        "slot": "0",
        "type": "t_mapping(t_bytes32,t_struct(RoleData)5616_storage)"
      },
      {
        "astId": 7472,
        "contract": "contracts/mocks/SimpleExecutorMock.sol:SimpleExecutorMock",
        "label": "_status",
        "offset": 0,
        "slot": "1",
        "type": "t_uint256"
      },
      {
        "astId": 1178,
        "contract": "contracts/mocks/SimpleExecutorMock.sol:SimpleExecutorMock",
        "label": "endpoint",
        "offset": 0,
        "slot": "2",
        "type": "t_contract(ILayerZeroEndpointV2)1566"
      },
      {
        "astId": 1362,
        "contract": "contracts/mocks/SimpleExecutorMock.sol:SimpleExecutorMock",
        "label": "__gap",
        "offset": 0,
        "slot": "3",
        "type": "t_array(t_uint256)49_storage"
      },
      {
        "astId": 8495,
        "contract": "contracts/mocks/SimpleExecutorMock.sol:SimpleExecutorMock",
        "label": "dstConfig",
        "offset": 0,
        "slot": "52",
        "type": "t_mapping(t_uint32,t_struct(DstConfig)39_storage)"
      },
      {
        "astId": 8497,
        "contract": "contracts/mocks/SimpleExecutorMock.sol:SimpleExecutorMock",
        "label": "localEidV2",
        "offset": 0,
        "slot": "53",
        "type": "t_uint32"
      },
      {
        "astId": 8499,
        "contract": "contracts/mocks/SimpleExecutorMock.sol:SimpleExecutorMock",
        "label": "receiveUln302",
        "offset": 4,
        "slot": "53",
        "type": "t_address"
      },
      {
        "astId": 8503,
        "contract": "contracts/mocks/SimpleExecutorMock.sol:SimpleExecutorMock",
        "label": "receiveLibToView",
        "offset": 0,
        "slot": "54",
        "type": "t_mapping(t_address,t_address)"
      },
      {
        "astId": 8511,
        "contract": "contracts/mocks/SimpleExecutorMock.sol:SimpleExecutorMock",
        "label": "workerFeeLib",
        "offset": 0,
        "slot": "55",
        "type": "t_address"
      },
      {
        "astId": 8513,
        "contract": "contracts/mocks/SimpleExecutorMock.sol:SimpleExecutorMock",
        "label": "allowlistSize",
        "offset": 20,
        "slot": "55",
        "type": "t_uint64"
      },
      {
        "astId": 8515,
        "contract": "contracts/mocks/SimpleExecutorMock.sol:SimpleExecutorMock",
        "label": "defaultMultiplierBps",
        "offset": 28,
        "slot": "55",
        "type": "t_uint16"
      },
      {
        "astId": 8517,
        "contract": "contracts/mocks/SimpleExecutorMock.sol:SimpleExecutorMock",
        "label": "priceFeed",
        "offset": 0,
        "slot": "56",
        "type": "t_address"
      },
      {
        "astId": 8522,
        "contract": "contracts/mocks/SimpleExecutorMock.sol:SimpleExecutorMock",
        "label": "supportedOptionTypes",
        "offset": 0,
        "slot": "57",
        "type": "t_mapping(t_uint32,t_array(t_uint8)dyn_storage)"
      }
    ],
    "types": {
      "t_address": {
        "encoding": "inplace",
        "label": "address",
        "numberOfBytes": "20"
      },
      "t_array(t_uint256)49_storage": {
        "base": "t_uint256",
        "encoding": "inplace",
        "label": "uint256[49]",
        "numberOfBytes": "1568"
      },
      "t_array(t_uint8)dyn_storage": {
        "base": "t_uint8",
        "encoding": "dynamic_array",
        "label": "uint8[]",
        "numberOfBytes": "32"
      },
      "t_bool": {
        "encoding": "inplace",
        "label": "bool",
        "numberOfBytes": "1"
      },
      "t_bytes32": {
        "encoding": "inplace",
        "label": "bytes32",
        "numberOfBytes": "32"
      },
      "t_contract(ILayerZeroEndpointV2)1566": {
        "encoding": "inplace",
        "label": "contract ILayerZeroEndpointV2",
        "numberOfBytes": "20"
      },
      "t_mapping(t_address,t_address)": {
        "encoding": "mapping",
        "key": "t_address",
        "label": "mapping(address => address)",
        "numberOfBytes": "32",
        "value": "t_address"
      },
      "t_mapping(t_address,t_bool)": {
        "encoding": "mapping",
        "key": "t_address",
        "label": "mapping(address => bool)",
        "numberOfBytes": "32",
        "value": "t_bool"
      },
      "t_mapping(t_bytes32,t_struct(RoleData)5616_storage)": {
        "encoding": "mapping",
        "key": "t_bytes32",
        "label": "mapping(bytes32 => struct AccessControl.RoleData)",
        "numberOfBytes": "32",
        "value": "t_struct(RoleData)5616_storage"
      },
      "t_mapping(t_uint32,t_array(t_uint8)dyn_storage)": {
        "encoding": "mapping",
        "key": "t_uint32",
        "label": "mapping(uint32 => uint8[])",
        "numberOfBytes": "32",
        "value": "t_array(t_uint8)dyn_storage"
      },
      "t_mapping(t_uint32,t_struct(DstConfig)39_storage)": {
        "encoding": "mapping",
        "key": "t_uint32",
        "label": "mapping(uint32 => struct IExecutor.DstConfig)",
        "numberOfBytes": "32",
        "value": "t_struct(DstConfig)39_storage"
      },
      "t_struct(DstConfig)39_storage": {
        "encoding": "inplace",
        "label": "struct IExecutor.DstConfig",
        "members": [
          {
            "astId": 30,
            "contract": "contracts/mocks/SimpleExecutorMock.sol:SimpleExecutorMock",
            "label": "lzReceiveBaseGas",
            "offset": 0,
            "slot": "0",
            "type": "t_uint64"
          },
          {
            "astId": 32,
            "contract": "contracts/mocks/SimpleExecutorMock.sol:SimpleExecutorMock",
            "label": "multiplierBps",
            "offset": 8,
            "slot": "0",
            "type": "t_uint16"
          },
          {
            "astId": 34,
            "contract": "contracts/mocks/SimpleExecutorMock.sol:SimpleExecutorMock",
            "label": "floorMarginUSD",
            "offset": 10,
            "slot": "0",
            "type": "t_uint128"
          },
          {
            "astId": 36,
            "contract": "contracts/mocks/SimpleExecutorMock.sol:SimpleExecutorMock",
            "label": "nativeCap",
            "offset": 0,
            "slot": "1",
            "type": "t_uint128"
          },
          {
            "astId": 38,
            "contract": "contracts/mocks/SimpleExecutorMock.sol:SimpleExecutorMock",
            "label": "lzComposeBaseGas",
            "offset": 16,
            "slot": "1",
            "type": "t_uint64"
          }
        ],
        "numberOfBytes": "64"
      },
      "t_struct(RoleData)5616_storage": {
        "encoding": "inplace",
        "label": "struct AccessControl.RoleData",
        "members": [
          {
            "astId": 5613,
            "contract": "contracts/mocks/SimpleExecutorMock.sol:SimpleExecutorMock",
            "label": "hasRole",
            "offset": 0,
            "slot": "0",
            "type": "t_mapping(t_address,t_bool)"
          },
          {
            "astId": 5615,
            "contract": "contracts/mocks/SimpleExecutorMock.sol:SimpleExecutorMock",
            "label": "adminRole",
            "offset": 0,
            "slot": "1",
            "type": "t_bytes32"
          }
        ],
        "numberOfBytes": "64"
      },
      "t_uint128": {
        "encoding": "inplace",
        "label": "uint128",
        "numberOfBytes": "16"
      },
      "t_uint16": {
        "encoding": "inplace",
        "label": "uint16",
        "numberOfBytes": "2"
      },
      "t_uint256": {
        "encoding": "inplace",
        "label": "uint256",
        "numberOfBytes": "32"
      },
      "t_uint32": {
        "encoding": "inplace",
        "label": "uint32",
        "numberOfBytes": "4"
      },
      "t_uint64": {
        "encoding": "inplace",
        "label": "uint64",
        "numberOfBytes": "8"
      },
      "t_uint8": {
        "encoding": "inplace",
        "label": "uint8",
        "numberOfBytes": "1"
      }
    }
  }
}